{"abi":[{"inputs":[{"internalType":"string","name":"_name","type":"string"},{"internalType":"string","name":"_symbol","type":"string"},{"internalType":"string","name":"_initBaseURI","type":"string"},{"internalType":"string","name":"_initNotRevealedUri","type":"string"}],"stateMutability":"nonpayable","type":"constructor","name":"constructor"},{"anonymous":false,"inputs":[{"indexed":true,"internalType":"address","name":"owner","type":"address"},{"indexed":true,"internalType":"address","name":"approved","type":"address"},{"indexed":true,"internalType":"uint256","name":"tokenId","type":"uint256"}],"name":"Approval","type":"event"},{"anonymous":false,"inputs":[{"indexed":true,"internalType":"address","name":"owner","type":"address"},{"indexed":true,"internalType":"address","name":"operator","type":"address"},{"indexed":false,"internalType":"bool","name":"approved","type":"bool"}],"name":"ApprovalForAll","type":"event"},{"anonymous":false,"inputs":[{"indexed":true,"internalType":"address","name":"previousOwner","type":"address"},{"indexed":true,"internalType":"address","name":"newOwner","type":"address"}],"name":"OwnershipTransferred","type":"event"},{"anonymous":false,"inputs":[{"indexed":true,"internalType":"address","name":"from","type":"address"},{"indexed":true,"internalType":"address","name":"to","type":"address"},{"indexed":true,"internalType":"uint256","name":"tokenId","type":"uint256"}],"name":"Transfer","type":"event"},{"inputs":[{"internalType":"address","name":"","type":"address"}],"name":"addressMintedBalance","outputs":[{"internalType":"uint256","name":"","type":"uint256"}],"stateMutability":"view","type":"function"},{"inputs":[{"internalType":"address","name":"to","type":"address"},{"internalType":"uint256","name":"tokenId","type":"uint256"}],"name":"approve","outputs":[],"stateMutability":"nonpayable","type":"function"},{"inputs":[{"internalType":"address","name":"owner","type":"address"}],"name":"balanceOf","outputs":[{"internalType":"uint256","name":"","type":"uint256"}],"stateMutability":"view","type":"function"},{"inputs":[],"name":"baseExtension","outputs":[{"internalType":"string","name":"","type":"string"}],"stateMutability":"view","type":"function"},{"inputs":[],"name":"baseURI","outputs":[{"internalType":"string","name":"","type":"string"}],"stateMutability":"view","type":"function"},{"inputs":[],"name":"cost","outputs":[{"internalType":"uint256","name":"","type":"uint256"}],"stateMutability":"view","type":"function"},{"inputs":[{"internalType":"uint256","name":"tokenId","type":"uint256"}],"name":"getApproved","outputs":[{"internalType":"address","name":"","type":"address"}],"stateMutability":"view","type":"function"},{"inputs":[],"name":"getCost","outputs":[{"internalType":"uint256","name":"","type":"uint256"}],"stateMutability":"view","type":"function"},{"inputs":[],"name":"hide","outputs":[],"stateMutability":"nonpayable","type":"function"},{"inputs":[{"internalType":"address","name":"owner","type":"address"},{"internalType":"address","name":"operator","type":"address"}],"name":"isApprovedForAll","outputs":[{"internalType":"bool","name":"","type":"bool"}],"stateMutability":"view","type":"function"},{"inputs":[{"internalType":"address","name":"_user","type":"address"}],"name":"isWhitelisted","outputs":[{"internalType":"bool","name":"","type":"bool"}],"stateMutability":"view","type":"function"},{"inputs":[],"name":"maxMintAmount","outputs":[{"internalType":"uint256","name":"","type":"uint256"}],"stateMutability":"view","type":"function"},{"inputs":[],"name":"maxSupply","outputs":[{"internalType":"uint256","name":"","type":"uint256"}],"stateMutability":"view","type":"function"},{"inputs":[{"internalType":"uint256","name":"_mintAmount","type":"uint256"}],"name":"mint","outputs":[],"stateMutability":"payable","type":"function"},{"inputs":[],"name":"name","outputs":[{"internalType":"string","name":"","type":"string"}],"stateMutability":"view","type":"function"},{"inputs":[],"name":"nftPerAddressLimit","outputs":[{"internalType":"uint256","name":"","type":"uint256"}],"stateMutability":"view","type":"function"},{"inputs":[],"name":"notRevealedUri","outputs":[{"internalType":"string","name":"","type":"string"}],"stateMutability":"view","type":"function"},{"inputs":[],"name":"onlyWhitelisted","outputs":[{"internalType":"bool","name":"","type":"bool"}],"stateMutability":"view","type":"function"},{"inputs":[],"name":"owner","outputs":[{"internalType":"address","name":"","type":"address"}],"stateMutability":"view","type":"function"},{"inputs":[{"internalType":"uint256","name":"tokenId","type":"uint256"}],"name":"ownerOf","outputs":[{"internalType":"address","name":"","type":"address"}],"stateMutability":"view","type":"function"},{"inputs":[{"internalType":"bool","name":"_state","type":"bool"}],"name":"pause","outputs":[],"stateMutability":"nonpayable","type":"function"},{"inputs":[],"name":"paused","outputs":[{"internalType":"bool","name":"","type":"bool"}],"stateMutability":"view","type":"function"},{"inputs":[],"name":"renounceOwnership","outputs":[],"stateMutability":"nonpayable","type":"function"},{"inputs":[],"name":"reveal","outputs":[],"stateMutability":"nonpayable","type":"function"},{"inputs":[],"name":"revealed","outputs":[{"internalType":"bool","name":"","type":"bool"}],"stateMutability":"view","type":"function"},{"inputs":[{"internalType":"address","name":"from","type":"address"},{"internalType":"address","name":"to","type":"address"},{"internalType":"uint256","name":"tokenId","type":"uint256"}],"name":"safeTransferFrom","outputs":[],"stateMutability":"nonpayable","type":"function"},{"inputs":[{"internalType":"address","name":"from","type":"address"},{"internalType":"address","name":"to","type":"address"},{"internalType":"uint256","name":"tokenId","type":"uint256"},{"internalType":"bytes","name":"_data","type":"bytes"}],"name":"safeTransferFrom","outputs":[],"stateMutability":"nonpayable","type":"function"},{"inputs":[{"internalType":"address","name":"operator","type":"address"},{"internalType":"bool","name":"approved","type":"bool"}],"name":"setApprovalForAll","outputs":[],"stateMutability":"nonpayable","type":"function"},{"inputs":[{"internalType":"string","name":"_newBaseExtension","type":"string"}],"name":"setBaseExtension","outputs":[],"stateMutability":"nonpayable","type":"function"},{"inputs":[{"internalType":"string","name":"_newBaseURI","type":"string"}],"name":"setBaseURI","outputs":[],"stateMutability":"nonpayable","type":"function"},{"inputs":[{"internalType":"uint256","name":"_newCost","type":"uint256"}],"name":"setCost","outputs":[],"stateMutability":"nonpayable","type":"function"},{"inputs":[{"internalType":"uint256","name":"_limit","type":"uint256"}],"name":"setNftPerAddressLimit","outputs":[],"stateMutability":"nonpayable","type":"function"},{"inputs":[{"internalType":"string","name":"_notRevealedURI","type":"string"}],"name":"setNotRevealedURI","outputs":[],"stateMutability":"nonpayable","type":"function"},{"inputs":[{"internalType":"bool","name":"_state","type":"bool"}],"name":"setOnlyWhitelisted","outputs":[],"stateMutability":"nonpayable","type":"function"},{"inputs":[{"internalType":"uint256","name":"_newmaxMintAmount","type":"uint256"}],"name":"setmaxMintAmount","outputs":[],"stateMutability":"nonpayable","type":"function"},{"inputs":[{"internalType":"bytes4","name":"interfaceId","type":"bytes4"}],"name":"supportsInterface","outputs":[{"internalType":"bool","name":"","type":"bool"}],"stateMutability":"view","type":"function"},{"inputs":[],"name":"symbol","outputs":[{"internalType":"string","name":"","type":"string"}],"stateMutability":"view","type":"function"},{"inputs":[{"internalType":"uint256","name":"index","type":"uint256"}],"name":"tokenByIndex","outputs":[{"internalType":"uint256","name":"","type":"uint256"}],"stateMutability":"view","type":"function"},{"inputs":[{"internalType":"address","name":"owner","type":"address"},{"internalType":"uint256","name":"index","type":"uint256"}],"name":"tokenOfOwnerByIndex","outputs":[{"internalType":"uint256","name":"","type":"uint256"}],"stateMutability":"view","type":"function"},{"inputs":[{"internalType":"uint256","name":"tokenId","type":"uint256"}],"name":"tokenURI","outputs":[{"internalType":"string","name":"","type":"string"}],"stateMutability":"view","type":"function"},{"inputs":[],"name":"totalSupply","outputs":[{"internalType":"uint256","name":"","type":"uint256"}],"stateMutability":"view","type":"function"},{"inputs":[{"internalType":"address","name":"from","type":"address"},{"internalType":"address","name":"to","type":"address"},{"internalType":"uint256","name":"tokenId","type":"uint256"}],"name":"transferFrom","outputs":[],"stateMutability":"nonpayable","type":"function"},{"inputs":[{"internalType":"address","name":"newOwner","type":"address"}],"name":"transferOwnership","outputs":[],"stateMutability":"nonpayable","type":"function"},{"inputs":[{"internalType":"address","name":"_owner","type":"address"}],"name":"walletOfOwner","outputs":[{"internalType":"uint256[]","name":"","type":"uint256[]"}],"stateMutability":"view","type":"function"},{"inputs":[{"internalType":"address[]","name":"_users","type":"address[]"}],"name":"whitelistUsers","outputs":[],"stateMutability":"nonpayable","type":"function"},{"inputs":[{"internalType":"uint256","name":"","type":"uint256"}],"name":"whitelistedAddresses","outputs":[{"internalType":"address","name":"","type":"address"}],"stateMutability":"view","type":"function"},{"inputs":[],"name":"withdraw","outputs":[],"stateMutability":"payable","type":"function"}],"bytecode":"60c06040526005608081905264173539b7b760d91b60a09081526200002891600c919062000206565b50670214e8348c4f0000600e55612710600f55600260105560036011556012805462ffffff191690553480156200005e57600080fd5b5060405162002f2f38038062002f2f833981016040819052620000819162000379565b8351849084906200009a90600090602085019062000206565b508051620000b090600190602084019062000206565b505050620000cd620000c7620000ed60201b60201c565b620000f1565b620000d88262000143565b620000e381620001ab565b505050506200046f565b3390565b600a80546001600160a01b038381166001600160a01b0319831681179093556040519116919082907f8be0079c531659141344cd1fd0a4f28419497f9722a3daafe3b4186f6b6457e090600090a35050565b600a546001600160a01b03163314620001925760405162461bcd60e51b8152602060048201819052602482015260008051602062002f0f83398151915260448201526064015b60405180910390fd5b8051620001a790600b90602084019062000206565b5050565b600a546001600160a01b03163314620001f65760405162461bcd60e51b8152602060048201819052602482015260008051602062002f0f833981519152604482015260640162000189565b8051620001a790600d9060208401905b828054620002149062000432565b90600052602060002090601f01602090048101928262000238576000855562000283565b82601f106200025357805160ff191683800117855562000283565b8280016001018555821562000283579182015b828111156200028357825182559160200191906001019062000266565b506200029192915062000295565b5090565b5b8082111562000291576000815560010162000296565b634e487b7160e01b600052604160045260246000fd5b600082601f830112620002d457600080fd5b81516001600160401b0380821115620002f157620002f1620002ac565b604051601f8301601f19908116603f011681019082821181831017156200031c576200031c620002ac565b816040528381526020925086838588010111156200033957600080fd5b600091505b838210156200035d57858201830151818301840152908201906200033e565b838211156200036f5760008385830101525b9695505050505050565b600080600080608085870312156200039057600080fd5b84516001600160401b0380821115620003a857600080fd5b620003b688838901620002c2565b95506020870151915080821115620003cd57600080fd5b620003db88838901620002c2565b94506040870151915080821115620003f257600080fd5b6200040088838901620002c2565b935060608701519150808211156200041757600080fd5b506200042687828801620002c2565b91505092959194509250565b600181811c908216806200044757607f821691505b602082108114156200046957634e487b7160e01b600052602260045260246000fd5b50919050565b612a90806200047f6000396000f3fe6080604052600436106102885760003560e01c80636c0360eb1161015a578063ba4e5c49116100c1578063d5abeb011161007a578063d5abeb0114610757578063da3ef23f1461076d578063e985e9c51461078d578063edec5f27146107d6578063f2c4ce1e146107f6578063f2fde38b1461081657600080fd5b8063ba4e5c49146106b7578063ba7d2c76146106d7578063bd3e19d4146106ed578063c668286214610702578063c87b56dd14610717578063d0eb26b01461073757600080fd5b80639c70b512116101135780639c70b5121461061a578063a0712d681461063a578063a22cb4651461064d578063a475b5dd1461066d578063b62a762514610682578063b88d4fde1461069757600080fd5b80636c0360eb1461057d57806370a0823114610592578063715018a6146105b25780637f00c7a6146105c75780638da5cb5b146105e757806395d89b411461060557600080fd5b80632f745c59116101fe57806344a0d68a116101b757806344a0d68a146104c45780634f6ccce7146104e4578063518302271461050457806355f804b3146105235780635c975abb146105435780636352211e1461055d57600080fd5b80632f745c591461040f5780633af32abf1461042f5780633c9527641461044f5780633ccfd60b1461046f57806342842e0e14610477578063438b63001461049757600080fd5b8063095ea7b311610250578063095ea7b31461035357806313faede61461037357806318160ddd1461039757806318cae269146103ac578063239c70ae146103d957806323b872dd146103ef57600080fd5b806301ffc9a71461028d57806302329a29146102c257806306fdde03146102e4578063081812fc14610306578063081c8c441461033e575b600080fd5b34801561029957600080fd5b506102ad6102a8366004612370565b610836565b60405190151581526020015b60405180910390f35b3480156102ce57600080fd5b506102e26102dd3660046123a2565b610861565b005b3480156102f057600080fd5b506102f96108a7565b6040516102b99190612415565b34801561031257600080fd5b50610326610321366004612428565b610939565b6040516001600160a01b0390911681526020016102b9565b34801561034a57600080fd5b506102f96109ce565b34801561035f57600080fd5b506102e261036e366004612458565b610a5c565b34801561037f57600080fd5b50610389600e5481565b6040519081526020016102b9565b3480156103a357600080fd5b50600854610389565b3480156103b857600080fd5b506103896103c7366004612482565b60146020526000908152604090205481565b3480156103e557600080fd5b5061038960105481565b3480156103fb57600080fd5b506102e261040a36600461249d565b610b72565b34801561041b57600080fd5b5061038961042a366004612458565b610ba3565b34801561043b57600080fd5b506102ad61044a366004612482565b610c39565b34801561045b57600080fd5b506102e261046a3660046123a2565b610ca3565b6102e2610ce9565b34801561048357600080fd5b506102e261049236600461249d565b610d97565b3480156104a357600080fd5b506104b76104b2366004612482565b610db2565b6040516102b991906124d9565b3480156104d057600080fd5b506102e26104df366004612428565b610e54565b3480156104f057600080fd5b506103896104ff366004612428565b610e83565b34801561051057600080fd5b506012546102ad90610100900460ff1681565b34801561052f57600080fd5b506102e261053e3660046125a9565b610f16565b34801561054f57600080fd5b506012546102ad9060ff1681565b34801561056957600080fd5b50610326610578366004612428565b610f57565b34801561058957600080fd5b506102f9610fce565b34801561059e57600080fd5b506103896105ad366004612482565b610fdb565b3480156105be57600080fd5b506102e2611062565b3480156105d357600080fd5b506102e26105e2366004612428565b611098565b3480156105f357600080fd5b50600a546001600160a01b0316610326565b34801561061157600080fd5b506102f96110c7565b34801561062657600080fd5b506012546102ad9062010000900460ff1681565b6102e2610648366004612428565b6110d6565b34801561065957600080fd5b506102e26106683660046125f2565b6113bd565b34801561067957600080fd5b506102e26113c8565b34801561068e57600080fd5b506102e2611403565b3480156106a357600080fd5b506102e26106b2366004612625565b61143a565b3480156106c357600080fd5b506103266106d2366004612428565b611472565b3480156106e357600080fd5b5061038960115481565b3480156106f957600080fd5b50600e54610389565b34801561070e57600080fd5b506102f961149c565b34801561072357600080fd5b506102f9610732366004612428565b6114a9565b34801561074357600080fd5b506102e2610752366004612428565b611628565b34801561076357600080fd5b50610389600f5481565b34801561077957600080fd5b506102e26107883660046125a9565b611657565b34801561079957600080fd5b506102ad6107a83660046126a1565b6001600160a01b03918216600090815260056020908152604080832093909416825291909152205460ff1690565b3480156107e257600080fd5b506102e26107f13660046126cb565b611694565b34801561080257600080fd5b506102e26108113660046125a9565b6116d6565b34801561082257600080fd5b506102e2610831366004612482565b611713565b60006001600160e01b0319821663780e9d6360e01b148061085b575061085b826117ae565b92915050565b600a546001600160a01b031633146108945760405162461bcd60e51b815260040161088b90612740565b60405180910390fd5b6012805460ff1916911515919091179055565b6060600080546108b690612775565b80601f01602080910402602001604051908101604052809291908181526020018280546108e290612775565b801561092f5780601f106109045761010080835404028352916020019161092f565b820191906000526020600020905b81548152906001019060200180831161091257829003601f168201915b5050505050905090565b6000818152600260205260408120546001600160a01b03166109b25760405162461bcd60e51b815260206004820152602c60248201527f4552433732313a20617070726f76656420717565727920666f72206e6f6e657860448201526b34b9ba32b73a103a37b5b2b760a11b606482015260840161088b565b506000908152600460205260409020546001600160a01b031690565b600d80546109db90612775565b80601f0160208091040260200160405190810160405280929190818152602001828054610a0790612775565b8015610a545780601f10610a2957610100808354040283529160200191610a54565b820191906000526020600020905b815481529060010190602001808311610a3757829003601f168201915b505050505081565b6000610a6782610f57565b9050806001600160a01b0316836001600160a01b03161415610ad55760405162461bcd60e51b815260206004820152602160248201527f4552433732313a20617070726f76616c20746f2063757272656e74206f776e656044820152603960f91b606482015260840161088b565b336001600160a01b0382161480610af15750610af181336107a8565b610b635760405162461bcd60e51b815260206004820152603860248201527f4552433732313a20617070726f76652063616c6c6572206973206e6f74206f7760448201527f6e6572206e6f7220617070726f76656420666f7220616c6c0000000000000000606482015260840161088b565b610b6d83836117fe565b505050565b610b7c338261186c565b610b985760405162461bcd60e51b815260040161088b906127b0565b610b6d838383611963565b6000610bae83610fdb565b8210610c105760405162461bcd60e51b815260206004820152602b60248201527f455243373231456e756d657261626c653a206f776e657220696e646578206f7560448201526a74206f6620626f756e647360a81b606482015260840161088b565b506001600160a01b03919091166000908152600660209081526040808320938352929052205490565b6000805b601354811015610c9a57826001600160a01b031660138281548110610c6457610c64612801565b6000918252602090912001546001600160a01b03161415610c885750600192915050565b80610c928161282d565b915050610c3d565b50600092915050565b600a546001600160a01b03163314610ccd5760405162461bcd60e51b815260040161088b90612740565b60128054911515620100000262ff000019909216919091179055565b600a546001600160a01b03163314610d135760405162461bcd60e51b815260040161088b90612740565b6001806000610d2a600a546001600160a01b031690565b6001600160a01b031682610d3e8547612848565b610d48919061287d565b604051600081818185875af1925050503d8060008114610d84576040519150601f19603f3d011682016040523d82523d6000602084013e610d89565b606091505b5050905080610b6d57600080fd5b610b6d8383836040518060200160405280600081525061143a565b60606000610dbf83610fdb565b905060008167ffffffffffffffff811115610ddc57610ddc61251d565b604051908082528060200260200182016040528015610e05578160200160208202803683370190505b50905060005b82811015610e4c57610e1d8582610ba3565b828281518110610e2f57610e2f612801565b602090810291909101015280610e448161282d565b915050610e0b565b509392505050565b600a546001600160a01b03163314610e7e5760405162461bcd60e51b815260040161088b90612740565b600e55565b6000610e8e60085490565b8210610ef15760405162461bcd60e51b815260206004820152602c60248201527f455243373231456e756d657261626c653a20676c6f62616c20696e646578206f60448201526b7574206f6620626f756e647360a01b606482015260840161088b565b60088281548110610f0457610f04612801565b90600052602060002001549050919050565b600a546001600160a01b03163314610f405760405162461bcd60e51b815260040161088b90612740565b8051610f5390600b906020840190612250565b5050565b6000818152600260205260408120546001600160a01b03168061085b5760405162461bcd60e51b815260206004820152602960248201527f4552433732313a206f776e657220717565727920666f72206e6f6e657869737460448201526832b73a103a37b5b2b760b91b606482015260840161088b565b600b80546109db90612775565b60006001600160a01b0382166110465760405162461bcd60e51b815260206004820152602a60248201527f4552433732313a2062616c616e636520717565727920666f7220746865207a65604482015269726f206164647265737360b01b606482015260840161088b565b506001600160a01b031660009081526003602052604090205490565b600a546001600160a01b0316331461108c5760405162461bcd60e51b815260040161088b90612740565b6110966000611b0e565b565b600a546001600160a01b031633146110c25760405162461bcd60e51b815260040161088b90612740565b601055565b6060600180546108b690612775565b60125460ff16156111225760405162461bcd60e51b81526020600482015260166024820152751d1a194818dbdb9d1c9858dd081a5cc81c185d5cd95960521b604482015260640161088b565b600061112d60085490565b90506000821161117f5760405162461bcd60e51b815260206004820152601b60248201527f6e65656420746f206d696e74206174206c656173742031204e46540000000000604482015260640161088b565b6010548211156111dd5760405162461bcd60e51b8152602060048201526024808201527f6d6178206d696e7420616d6f756e74207065722073657373696f6e20657863656044820152631959195960e21b606482015260840161088b565b600f546111ea8383612891565b11156112315760405162461bcd60e51b81526020600482015260166024820152751b585e08139195081b1a5b5a5d08195e18d95959195960521b604482015260640161088b565b600a546001600160a01b0316331461136d5760125462010000900460ff1615156001141561131b5761126233610c39565b6112ae5760405162461bcd60e51b815260206004820152601760248201527f75736572206973206e6f742077686974656c6973746564000000000000000000604482015260640161088b565b336000908152601460205260409020546011546112cb8483612891565b11156113195760405162461bcd60e51b815260206004820152601c60248201527f6d6178204e465420706572206164647265737320657863656564656400000000604482015260640161088b565b505b81600e546113299190612848565b34101561136d5760405162461bcd60e51b8152602060048201526012602482015271696e73756666696369656e742066756e647360701b604482015260640161088b565b60015b828111610b6d573360009081526014602052604081208054916113928361282d565b909155506113ab9050336113a68385612891565b611b60565b806113b58161282d565b915050611370565b610f53338383611b7a565b600a546001600160a01b031633146113f25760405162461bcd60e51b815260040161088b90612740565b6012805461ff001916610100179055565b600a546001600160a01b0316331461142d5760405162461bcd60e51b815260040161088b90612740565b6012805461ff0019169055565b611444338361186c565b6114605760405162461bcd60e51b815260040161088b906127b0565b61146c84848484611c49565b50505050565b6013818154811061148257600080fd5b6000918252602090912001546001600160a01b0316905081565b600c80546109db90612775565b6000818152600260205260409020546060906001600160a01b03166115285760405162461bcd60e51b815260206004820152602f60248201527f4552433732314d657461646174613a2055524920717565727920666f72206e6f60448201526e3732bc34b9ba32b73a103a37b5b2b760891b606482015260840161088b565b601254610100900460ff166115c957600d805461154490612775565b80601f016020809104026020016040519081016040528092919081815260200182805461157090612775565b80156115bd5780601f10611592576101008083540402835291602001916115bd565b820191906000526020600020905b8154815290600101906020018083116115a057829003601f168201915b50505050509050919050565b60006115d3611c7c565b905060008151116115f35760405180602001604052806000815250611621565b806115fd84611c8b565b600c604051602001611611939291906128a9565b6040516020818303038152906040525b9392505050565b600a546001600160a01b031633146116525760405162461bcd60e51b815260040161088b90612740565b601155565b600a546001600160a01b031633146116815760405162461bcd60e51b815260040161088b90612740565b8051610f5390600c906020840190612250565b600a546001600160a01b031633146116be5760405162461bcd60e51b815260040161088b90612740565b6116ca601360006122d4565b610b6d601383836122f2565b600a546001600160a01b031633146117005760405162461bcd60e51b815260040161088b90612740565b8051610f5390600d906020840190612250565b600a546001600160a01b0316331461173d5760405162461bcd60e51b815260040161088b90612740565b6001600160a01b0381166117a25760405162461bcd60e51b815260206004820152602660248201527f4f776e61626c653a206e6577206f776e657220697320746865207a65726f206160448201526564647265737360d01b606482015260840161088b565b6117ab81611b0e565b50565b60006001600160e01b031982166380ac58cd60e01b14806117df57506001600160e01b03198216635b5e139f60e01b145b8061085b57506301ffc9a760e01b6001600160e01b031983161461085b565b600081815260046020526040902080546001600160a01b0319166001600160a01b038416908117909155819061183382610f57565b6001600160a01b03167f8c5be1e5ebec7d5bd14f71427d1e84f3dd0314c0f7b2291e5b200ac8c7c3b92560405160405180910390a45050565b6000818152600260205260408120546001600160a01b03166118e55760405162461bcd60e51b815260206004820152602c60248201527f4552433732313a206f70657261746f7220717565727920666f72206e6f6e657860448201526b34b9ba32b73a103a37b5b2b760a11b606482015260840161088b565b60006118f083610f57565b9050806001600160a01b0316846001600160a01b0316148061192b5750836001600160a01b031661192084610939565b6001600160a01b0316145b8061195b57506001600160a01b0380821660009081526005602090815260408083209388168352929052205460ff165b949350505050565b826001600160a01b031661197682610f57565b6001600160a01b0316146119de5760405162461bcd60e51b815260206004820152602960248201527f4552433732313a207472616e73666572206f6620746f6b656e2074686174206960448201526839903737ba1037bbb760b91b606482015260840161088b565b6001600160a01b038216611a405760405162461bcd60e51b8152602060048201526024808201527f4552433732313a207472616e7366657220746f20746865207a65726f206164646044820152637265737360e01b606482015260840161088b565b611a4b838383611d89565b611a566000826117fe565b6001600160a01b0383166000908152600360205260408120805460019290611a7f90849061296d565b90915550506001600160a01b0382166000908152600360205260408120805460019290611aad908490612891565b909155505060008181526002602052604080822080546001600160a01b0319166001600160a01b0386811691821790925591518493918716917fddf252ad1be2c89b69c2b068fc378daa952ba7f163c4a11628f55a4df523b3ef91a4505050565b600a80546001600160a01b038381166001600160a01b0319831681179093556040519116919082907f8be0079c531659141344cd1fd0a4f28419497f9722a3daafe3b4186f6b6457e090600090a35050565b610f53828260405180602001604052806000815250611e41565b816001600160a01b0316836001600160a01b03161415611bdc5760405162461bcd60e51b815260206004820152601960248201527f4552433732313a20617070726f766520746f2063616c6c657200000000000000604482015260640161088b565b6001600160a01b03838116600081815260056020908152604080832094871680845294825291829020805460ff191686151590811790915591519182527f17307eab39ab6107e8899845ad3d59bd9653f200f220920489ca2b5937696c31910160405180910390a3505050565b611c54848484611963565b611c6084848484611e74565b61146c5760405162461bcd60e51b815260040161088b90612984565b6060600b80546108b690612775565b606081611caf5750506040805180820190915260018152600360fc1b602082015290565b8160005b8115611cd95780611cc38161282d565b9150611cd29050600a8361287d565b9150611cb3565b60008167ffffffffffffffff811115611cf457611cf461251d565b6040519080825280601f01601f191660200182016040528015611d1e576020820181803683370190505b5090505b841561195b57611d3360018361296d565b9150611d40600a866129d6565b611d4b906030612891565b60f81b818381518110611d6057611d60612801565b60200101906001600160f81b031916908160001a905350611d82600a8661287d565b9450611d22565b6001600160a01b038316611de457611ddf81600880546000838152600960205260408120829055600182018355919091527ff3f7a9fe364faab93b216da50a3214154f22a0a2b415b23a84c8169e8b636ee30155565b611e07565b816001600160a01b0316836001600160a01b031614611e0757611e078382611f72565b6001600160a01b038216611e1e57610b6d8161200f565b826001600160a01b0316826001600160a01b031614610b6d57610b6d82826120be565b611e4b8383612102565b611e586000848484611e74565b610b6d5760405162461bcd60e51b815260040161088b90612984565b60006001600160a01b0384163b15611f6757604051630a85bd0160e11b81526001600160a01b0385169063150b7a0290611eb89033908990889088906004016129ea565b6020604051808303816000875af1925050508015611ef3575060408051601f3d908101601f19168201909252611ef091810190612a27565b60015b611f4d573d808015611f21576040519150601f19603f3d011682016040523d82523d6000602084013e611f26565b606091505b508051611f455760405162461bcd60e51b815260040161088b90612984565b805181602001fd5b6001600160e01b031916630a85bd0160e11b14905061195b565b506001949350505050565b60006001611f7f84610fdb565b611f89919061296d565b600083815260076020526040902054909150808214611fdc576001600160a01b03841660009081526006602090815260408083208584528252808320548484528184208190558352600790915290208190555b5060009182526007602090815260408084208490556001600160a01b039094168352600681528383209183525290812055565b6008546000906120219060019061296d565b6000838152600960205260408120546008805493945090928490811061204957612049612801565b90600052602060002001549050806008838154811061206a5761206a612801565b60009182526020808320909101929092558281526009909152604080822084905585825281205560088054806120a2576120a2612a44565b6001900381819060005260206000200160009055905550505050565b60006120c983610fdb565b6001600160a01b039093166000908152600660209081526040808320868452825280832085905593825260079052919091209190915550565b6001600160a01b0382166121585760405162461bcd60e51b815260206004820181905260248201527f4552433732313a206d696e7420746f20746865207a65726f2061646472657373604482015260640161088b565b6000818152600260205260409020546001600160a01b0316156121bd5760405162461bcd60e51b815260206004820152601c60248201527f4552433732313a20746f6b656e20616c7265616479206d696e74656400000000604482015260640161088b565b6121c960008383611d89565b6001600160a01b03821660009081526003602052604081208054600192906121f2908490612891565b909155505060008181526002602052604080822080546001600160a01b0319166001600160a01b03861690811790915590518392907fddf252ad1be2c89b69c2b068fc378daa952ba7f163c4a11628f55a4df523b3ef908290a45050565b82805461225c90612775565b90600052602060002090601f01602090048101928261227e57600085556122c4565b82601f1061229757805160ff19168380011785556122c4565b828001600101855582156122c4579182015b828111156122c45782518255916020019190600101906122a9565b506122d0929150612345565b5090565b50805460008255906000526020600020908101906117ab9190612345565b8280548282559060005260206000209081019282156122c4579160200282015b828111156122c45781546001600160a01b0319166001600160a01b03843516178255602090920191600190910190612312565b5b808211156122d05760008155600101612346565b6001600160e01b0319811681146117ab57600080fd5b60006020828403121561238257600080fd5b81356116218161235a565b8035801515811461239d57600080fd5b919050565b6000602082840312156123b457600080fd5b6116218261238d565b60005b838110156123d85781810151838201526020016123c0565b8381111561146c5750506000910152565b600081518084526124018160208601602086016123bd565b601f01601f19169290920160200192915050565b60208152600061162160208301846123e9565b60006020828403121561243a57600080fd5b5035919050565b80356001600160a01b038116811461239d57600080fd5b6000806040838503121561246b57600080fd5b61247483612441565b946020939093013593505050565b60006020828403121561249457600080fd5b61162182612441565b6000806000606084860312156124b257600080fd5b6124bb84612441565b92506124c960208501612441565b9150604084013590509250925092565b6020808252825182820181905260009190848201906040850190845b81811015612511578351835292840192918401916001016124f5565b50909695505050505050565b634e487b7160e01b600052604160045260246000fd5b600067ffffffffffffffff8084111561254e5761254e61251d565b604051601f8501601f19908116603f011681019082821181831017156125765761257661251d565b8160405280935085815286868601111561258f57600080fd5b858560208301376000602087830101525050509392505050565b6000602082840312156125bb57600080fd5b813567ffffffffffffffff8111156125d257600080fd5b8201601f810184136125e357600080fd5b61195b84823560208401612533565b6000806040838503121561260557600080fd5b61260e83612441565b915061261c6020840161238d565b90509250929050565b6000806000806080858703121561263b57600080fd5b61264485612441565b935061265260208601612441565b925060408501359150606085013567ffffffffffffffff81111561267557600080fd5b8501601f8101871361268657600080fd5b61269587823560208401612533565b91505092959194509250565b600080604083850312156126b457600080fd5b6126bd83612441565b915061261c60208401612441565b600080602083850312156126de57600080fd5b823567ffffffffffffffff808211156126f657600080fd5b818501915085601f83011261270a57600080fd5b81358181111561271957600080fd5b8660208260051b850101111561272e57600080fd5b60209290920196919550909350505050565b6020808252818101527f4f776e61626c653a2063616c6c6572206973206e6f7420746865206f776e6572604082015260600190565b600181811c9082168061278957607f821691505b602082108114156127aa57634e487b7160e01b600052602260045260246000fd5b50919050565b60208082526031908201527f4552433732313a207472616e736665722063616c6c6572206973206e6f74206f6040820152701ddb995c881b9bdc88185c1c1c9bdd9959607a1b606082015260800190565b634e487b7160e01b600052603260045260246000fd5b634e487b7160e01b600052601160045260246000fd5b600060001982141561284157612841612817565b5060010190565b600081600019048311821515161561286257612862612817565b500290565b634e487b7160e01b600052601260045260246000fd5b60008261288c5761288c612867565b500490565b600082198211156128a4576128a4612817565b500190565b6000845160206128bc8285838a016123bd565b8551918401916128cf8184848a016123bd565b8554920191600090600181811c90808316806128ec57607f831692505b85831081141561290a57634e487b7160e01b85526022600452602485fd5b80801561291e576001811461292f5761295c565b60ff1985168852838801955061295c565b60008b81526020902060005b858110156129545781548a82015290840190880161293b565b505083880195505b50939b9a5050505050505050505050565b60008282101561297f5761297f612817565b500390565b60208082526032908201527f4552433732313a207472616e7366657220746f206e6f6e20455243373231526560408201527131b2b4bb32b91034b6b83632b6b2b73a32b960711b606082015260800190565b6000826129e5576129e5612867565b500690565b6001600160a01b0385811682528416602082015260408101839052608060608201819052600090612a1d908301846123e9565b9695505050505050565b600060208284031215612a3957600080fd5b81516116218161235a565b634e487b7160e01b600052603160045260246000fdfea2646970667358221220dda1f6264b0aa94bb3d9f4967d10259ae815cd4f28894bc696189e16fc01ea6564736f6c634300080a00334f776e61626c653a2063616c6c6572206973206e6f7420746865206f776e6572","bytecodeSha1":"da39a3ee5e6b4b0d3255bfef95601890afd80709","compiler":{"evm_version":"istanbul","optimizer":{"enabled":true,"runs":200},"version":"0.8.10+commit.fc410830"},"contractName":"Explorer","language":"Solidity","natspec":{"kind":"dev","methods":{"approve(address,uint256)":{"details":"See {IERC721-approve}."},"balanceOf(address)":{"details":"See {IERC721-balanceOf}."},"getApproved(uint256)":{"details":"See {IERC721-getApproved}."},"isApprovedForAll(address,address)":{"details":"See {IERC721-isApprovedForAll}."},"name()":{"details":"See {IERC721Metadata-name}."},"owner()":{"details":"Returns the address of the current owner."},"ownerOf(uint256)":{"details":"See {IERC721-ownerOf}."},"renounceOwnership()":{"details":"Leaves the contract without owner. It will not be possible to call `onlyOwner` functions anymore. Can only be called by the current owner. NOTE: Renouncing ownership will leave the contract without an owner, thereby removing any functionality that is only available to the owner."},"safeTransferFrom(address,address,uint256)":{"details":"See {IERC721-safeTransferFrom}."},"safeTransferFrom(address,address,uint256,bytes)":{"details":"See {IERC721-safeTransferFrom}."},"setApprovalForAll(address,bool)":{"details":"See {IERC721-setApprovalForAll}."},"supportsInterface(bytes4)":{"details":"See {IERC165-supportsInterface}."},"symbol()":{"details":"See {IERC721Metadata-symbol}."},"tokenByIndex(uint256)":{"details":"See {IERC721Enumerable-tokenByIndex}."},"tokenOfOwnerByIndex(address,uint256)":{"details":"See {IERC721Enumerable-tokenOfOwnerByIndex}."},"tokenURI(uint256)":{"details":"See {IERC721Metadata-tokenURI}."},"totalSupply()":{"details":"See {IERC721Enumerable-totalSupply}."},"transferFrom(address,address,uint256)":{"details":"See {IERC721-transferFrom}."},"transferOwnership(address)":{"details":"Transfers ownership of the contract to a new account (`newOwner`). Can only be called by the current owner."}},"version":1},"opcodes":"PUSH1 0x80 PUSH1 0x40 MSTORE PUSH1 0x4 CALLDATASIZE LT PUSH2 0x288 JUMPI PUSH1 0x0 CALLDATALOAD PUSH1 0xE0 SHR DUP1 PUSH4 0x6C0360EB GT PUSH2 0x15A JUMPI DUP1 PUSH4 0xBA4E5C49 GT PUSH2 0xC1 JUMPI DUP1 PUSH4 0xD5ABEB01 GT PUSH2 0x7A JUMPI DUP1 PUSH4 0xD5ABEB01 EQ PUSH2 0x757 JUMPI DUP1 PUSH4 0xDA3EF23F EQ PUSH2 0x76D JUMPI DUP1 PUSH4 0xE985E9C5 EQ PUSH2 0x78D JUMPI DUP1 PUSH4 0xEDEC5F27 EQ PUSH2 0x7D6 JUMPI DUP1 PUSH4 0xF2C4CE1E EQ PUSH2 0x7F6 JUMPI DUP1 PUSH4 0xF2FDE38B EQ PUSH2 0x816 JUMPI PUSH1 0x0 DUP1 REVERT JUMPDEST DUP1 PUSH4 0xBA4E5C49 EQ PUSH2 0x6B7 JUMPI DUP1 PUSH4 0xBA7D2C76 EQ PUSH2 0x6D7 JUMPI DUP1 PUSH4 0xBD3E19D4 EQ PUSH2 0x6ED JUMPI DUP1 PUSH4 0xC6682862 EQ PUSH2 0x702 JUMPI DUP1 PUSH4 0xC87B56DD EQ PUSH2 0x717 JUMPI DUP1 PUSH4 0xD0EB26B0 EQ PUSH2 0x737 JUMPI PUSH1 0x0 DUP1 REVERT JUMPDEST DUP1 PUSH4 0x9C70B512 GT PUSH2 0x113 JUMPI DUP1 PUSH4 0x9C70B512 EQ PUSH2 0x61A JUMPI DUP1 PUSH4 0xA0712D68 EQ PUSH2 0x63A JUMPI DUP1 PUSH4 0xA22CB465 EQ PUSH2 0x64D JUMPI DUP1 PUSH4 0xA475B5DD EQ PUSH2 0x66D JUMPI DUP1 PUSH4 0xB62A7625 EQ PUSH2 0x682 JUMPI DUP1 PUSH4 0xB88D4FDE EQ PUSH2 0x697 JUMPI PUSH1 0x0 DUP1 REVERT JUMPDEST DUP1 PUSH4 0x6C0360EB EQ PUSH2 0x57D JUMPI DUP1 PUSH4 0x70A08231 EQ PUSH2 0x592 JUMPI DUP1 PUSH4 0x715018A6 EQ PUSH2 0x5B2 JUMPI DUP1 PUSH4 0x7F00C7A6 EQ PUSH2 0x5C7 JUMPI DUP1 PUSH4 0x8DA5CB5B EQ PUSH2 0x5E7 JUMPI DUP1 PUSH4 0x95D89B41 EQ PUSH2 0x605 JUMPI PUSH1 0x0 DUP1 REVERT JUMPDEST DUP1 PUSH4 0x2F745C59 GT PUSH2 0x1FE JUMPI DUP1 PUSH4 0x44A0D68A GT PUSH2 0x1B7 JUMPI DUP1 PUSH4 0x44A0D68A EQ PUSH2 0x4C4 JUMPI DUP1 PUSH4 0x4F6CCCE7 EQ PUSH2 0x4E4 JUMPI DUP1 PUSH4 0x51830227 EQ PUSH2 0x504 JUMPI DUP1 PUSH4 0x55F804B3 EQ PUSH2 0x523 JUMPI DUP1 PUSH4 0x5C975ABB EQ PUSH2 0x543 JUMPI DUP1 PUSH4 0x6352211E EQ PUSH2 0x55D JUMPI PUSH1 0x0 DUP1 REVERT JUMPDEST DUP1 PUSH4 0x2F745C59 EQ PUSH2 0x40F JUMPI DUP1 PUSH4 0x3AF32ABF EQ PUSH2 0x42F JUMPI DUP1 PUSH4 0x3C952764 EQ PUSH2 0x44F JUMPI DUP1 PUSH4 0x3CCFD60B EQ PUSH2 0x46F JUMPI DUP1 PUSH4 0x42842E0E EQ PUSH2 0x477 JUMPI DUP1 PUSH4 0x438B6300 EQ PUSH2 0x497 JUMPI PUSH1 0x0 DUP1 REVERT JUMPDEST DUP1 PUSH4 0x95EA7B3 GT PUSH2 0x250 JUMPI DUP1 PUSH4 0x95EA7B3 EQ PUSH2 0x353 JUMPI DUP1 PUSH4 0x13FAEDE6 EQ PUSH2 0x373 JUMPI DUP1 PUSH4 0x18160DDD EQ PUSH2 0x397 JUMPI DUP1 PUSH4 0x18CAE269 EQ PUSH2 0x3AC JUMPI DUP1 PUSH4 0x239C70AE EQ PUSH2 0x3D9 JUMPI DUP1 PUSH4 0x23B872DD EQ PUSH2 0x3EF JUMPI PUSH1 0x0 DUP1 REVERT JUMPDEST DUP1 PUSH4 0x1FFC9A7 EQ PUSH2 0x28D JUMPI DUP1 PUSH4 0x2329A29 EQ PUSH2 0x2C2 JUMPI DUP1 PUSH4 0x6FDDE03 EQ PUSH2 0x2E4 JUMPI DUP1 PUSH4 0x81812FC EQ PUSH2 0x306 JUMPI DUP1 PUSH4 0x81C8C44 EQ PUSH2 0x33E JUMPI JUMPDEST PUSH1 0x0 DUP1 REVERT JUMPDEST CALLVALUE DUP1 ISZERO PUSH2 0x299 JUMPI PUSH1 0x0 DUP1 REVERT JUMPDEST POP PUSH2 0x2AD PUSH2 0x2A8 CALLDATASIZE PUSH1 0x4 PUSH2 0x2370 JUMP JUMPDEST PUSH2 0x836 JUMP JUMPDEST PUSH1 0x40 MLOAD SWAP1 ISZERO ISZERO DUP2 MSTORE PUSH1 0x20 ADD JUMPDEST PUSH1 0x40 MLOAD DUP1 SWAP2 SUB SWAP1 RETURN JUMPDEST CALLVALUE DUP1 ISZERO PUSH2 0x2CE JUMPI PUSH1 0x0 DUP1 REVERT JUMPDEST POP PUSH2 0x2E2 PUSH2 0x2DD CALLDATASIZE PUSH1 0x4 PUSH2 0x23A2 JUMP JUMPDEST PUSH2 0x861 JUMP JUMPDEST STOP JUMPDEST CALLVALUE DUP1 ISZERO PUSH2 0x2F0 JUMPI PUSH1 0x0 DUP1 REVERT JUMPDEST POP PUSH2 0x2F9 PUSH2 0x8A7 JUMP JUMPDEST PUSH1 0x40 MLOAD PUSH2 0x2B9 SWAP2 SWAP1 PUSH2 0x2415 JUMP JUMPDEST CALLVALUE DUP1 ISZERO PUSH2 0x312 JUMPI PUSH1 0x0 DUP1 REVERT JUMPDEST POP PUSH2 0x326 PUSH2 0x321 CALLDATASIZE PUSH1 0x4 PUSH2 0x2428 JUMP JUMPDEST PUSH2 0x939 JUMP JUMPDEST PUSH1 0x40 MLOAD PUSH1 0x1 PUSH1 0x1 PUSH1 0xA0 SHL SUB SWAP1 SWAP2 AND DUP2 MSTORE PUSH1 0x20 ADD PUSH2 0x2B9 JUMP JUMPDEST CALLVALUE DUP1 ISZERO PUSH2 0x34A JUMPI PUSH1 0x0 DUP1 REVERT JUMPDEST POP PUSH2 0x2F9 PUSH2 0x9CE JUMP JUMPDEST CALLVALUE DUP1 ISZERO PUSH2 0x35F JUMPI PUSH1 0x0 DUP1 REVERT JUMPDEST POP PUSH2 0x2E2 PUSH2 0x36E CALLDATASIZE PUSH1 0x4 PUSH2 0x2458 JUMP JUMPDEST PUSH2 0xA5C JUMP JUMPDEST CALLVALUE DUP1 ISZERO PUSH2 0x37F JUMPI PUSH1 0x0 DUP1 REVERT JUMPDEST POP PUSH2 0x389 PUSH1 0xE SLOAD DUP2 JUMP JUMPDEST PUSH1 0x40 MLOAD SWAP1 DUP2 MSTORE PUSH1 0x20 ADD PUSH2 0x2B9 JUMP JUMPDEST CALLVALUE DUP1 ISZERO PUSH2 0x3A3 JUMPI PUSH1 0x0 DUP1 REVERT JUMPDEST POP PUSH1 0x8 SLOAD PUSH2 0x389 JUMP JUMPDEST CALLVALUE DUP1 ISZERO PUSH2 0x3B8 JUMPI PUSH1 0x0 DUP1 REVERT JUMPDEST POP PUSH2 0x389 PUSH2 0x3C7 CALLDATASIZE PUSH1 0x4 PUSH2 0x2482 JUMP JUMPDEST PUSH1 0x14 PUSH1 0x20 MSTORE PUSH1 0x0 SWAP1 DUP2 MSTORE PUSH1 0x40 SWAP1 KECCAK256 SLOAD DUP2 JUMP JUMPDEST CALLVALUE DUP1 ISZERO PUSH2 0x3E5 JUMPI PUSH1 0x0 DUP1 REVERT JUMPDEST POP PUSH2 0x389 PUSH1 0x10 SLOAD DUP2 JUMP JUMPDEST CALLVALUE DUP1 ISZERO PUSH2 0x3FB JUMPI PUSH1 0x0 DUP1 REVERT JUMPDEST POP PUSH2 0x2E2 PUSH2 0x40A CALLDATASIZE PUSH1 0x4 PUSH2 0x249D JUMP JUMPDEST PUSH2 0xB72 JUMP JUMPDEST CALLVALUE DUP1 ISZERO PUSH2 0x41B JUMPI PUSH1 0x0 DUP1 REVERT JUMPDEST POP PUSH2 0x389 PUSH2 0x42A CALLDATASIZE PUSH1 0x4 PUSH2 0x2458 JUMP JUMPDEST PUSH2 0xBA3 JUMP JUMPDEST CALLVALUE DUP1 ISZERO PUSH2 0x43B JUMPI PUSH1 0x0 DUP1 REVERT JUMPDEST POP PUSH2 0x2AD PUSH2 0x44A CALLDATASIZE PUSH1 0x4 PUSH2 0x2482 JUMP JUMPDEST PUSH2 0xC39 JUMP JUMPDEST CALLVALUE DUP1 ISZERO PUSH2 0x45B JUMPI PUSH1 0x0 DUP1 REVERT JUMPDEST POP PUSH2 0x2E2 PUSH2 0x46A CALLDATASIZE PUSH1 0x4 PUSH2 0x23A2 JUMP JUMPDEST PUSH2 0xCA3 JUMP JUMPDEST PUSH2 0x2E2 PUSH2 0xCE9 JUMP JUMPDEST CALLVALUE DUP1 ISZERO PUSH2 0x483 JUMPI PUSH1 0x0 DUP1 REVERT JUMPDEST POP PUSH2 0x2E2 PUSH2 0x492 CALLDATASIZE PUSH1 0x4 PUSH2 0x249D JUMP JUMPDEST PUSH2 0xD97 JUMP JUMPDEST CALLVALUE DUP1 ISZERO PUSH2 0x4A3 JUMPI PUSH1 0x0 DUP1 REVERT JUMPDEST POP PUSH2 0x4B7 PUSH2 0x4B2 CALLDATASIZE PUSH1 0x4 PUSH2 0x2482 JUMP JUMPDEST PUSH2 0xDB2 JUMP JUMPDEST PUSH1 0x40 MLOAD PUSH2 0x2B9 SWAP2 SWAP1 PUSH2 0x24D9 JUMP JUMPDEST CALLVALUE DUP1 ISZERO PUSH2 0x4D0 JUMPI PUSH1 0x0 DUP1 REVERT JUMPDEST POP PUSH2 0x2E2 PUSH2 0x4DF CALLDATASIZE PUSH1 0x4 PUSH2 0x2428 JUMP JUMPDEST PUSH2 0xE54 JUMP JUMPDEST CALLVALUE DUP1 ISZERO PUSH2 0x4F0 JUMPI PUSH1 0x0 DUP1 REVERT JUMPDEST POP PUSH2 0x389 PUSH2 0x4FF CALLDATASIZE PUSH1 0x4 PUSH2 0x2428 JUMP JUMPDEST PUSH2 0xE83 JUMP JUMPDEST CALLVALUE DUP1 ISZERO PUSH2 0x510 JUMPI PUSH1 0x0 DUP1 REVERT JUMPDEST POP PUSH1 0x12 SLOAD PUSH2 0x2AD SWAP1 PUSH2 0x100 SWAP1 DIV PUSH1 0xFF AND DUP2 JUMP JUMPDEST CALLVALUE DUP1 ISZERO PUSH2 0x52F JUMPI PUSH1 0x0 DUP1 REVERT JUMPDEST POP PUSH2 0x2E2 PUSH2 0x53E CALLDATASIZE PUSH1 0x4 PUSH2 0x25A9 JUMP JUMPDEST PUSH2 0xF16 JUMP JUMPDEST CALLVALUE DUP1 ISZERO PUSH2 0x54F JUMPI PUSH1 0x0 DUP1 REVERT JUMPDEST POP PUSH1 0x12 SLOAD PUSH2 0x2AD SWAP1 PUSH1 0xFF AND DUP2 JUMP JUMPDEST CALLVALUE DUP1 ISZERO PUSH2 0x569 JUMPI PUSH1 0x0 DUP1 REVERT JUMPDEST POP PUSH2 0x326 PUSH2 0x578 CALLDATASIZE PUSH1 0x4 PUSH2 0x2428 JUMP JUMPDEST PUSH2 0xF57 JUMP JUMPDEST CALLVALUE DUP1 ISZERO PUSH2 0x589 JUMPI PUSH1 0x0 DUP1 REVERT JUMPDEST POP PUSH2 0x2F9 PUSH2 0xFCE JUMP JUMPDEST CALLVALUE DUP1 ISZERO PUSH2 0x59E JUMPI PUSH1 0x0 DUP1 REVERT JUMPDEST POP PUSH2 0x389 PUSH2 0x5AD CALLDATASIZE PUSH1 0x4 PUSH2 0x2482 JUMP JUMPDEST PUSH2 0xFDB JUMP JUMPDEST CALLVALUE DUP1 ISZERO PUSH2 0x5BE JUMPI PUSH1 0x0 DUP1 REVERT JUMPDEST POP PUSH2 0x2E2 PUSH2 0x1062 JUMP JUMPDEST CALLVALUE DUP1 ISZERO PUSH2 0x5D3 JUMPI PUSH1 0x0 DUP1 REVERT JUMPDEST POP PUSH2 0x2E2 PUSH2 0x5E2 CALLDATASIZE PUSH1 0x4 PUSH2 0x2428 JUMP JUMPDEST PUSH2 0x1098 JUMP JUMPDEST CALLVALUE DUP1 ISZERO PUSH2 0x5F3 JUMPI PUSH1 0x0 DUP1 REVERT JUMPDEST POP PUSH1 0xA SLOAD PUSH1 0x1 PUSH1 0x1 PUSH1 0xA0 SHL SUB AND PUSH2 0x326 JUMP JUMPDEST CALLVALUE DUP1 ISZERO PUSH2 0x611 JUMPI PUSH1 0x0 DUP1 REVERT JUMPDEST POP PUSH2 0x2F9 PUSH2 0x10C7 JUMP JUMPDEST CALLVALUE DUP1 ISZERO PUSH2 0x626 JUMPI PUSH1 0x0 DUP1 REVERT JUMPDEST POP PUSH1 0x12 SLOAD PUSH2 0x2AD SWAP1 PUSH3 0x10000 SWAP1 DIV PUSH1 0xFF AND DUP2 JUMP JUMPDEST PUSH2 0x2E2 PUSH2 0x648 CALLDATASIZE PUSH1 0x4 PUSH2 0x2428 JUMP JUMPDEST PUSH2 0x10D6 JUMP JUMPDEST CALLVALUE DUP1 ISZERO PUSH2 0x659 JUMPI PUSH1 0x0 DUP1 REVERT JUMPDEST POP PUSH2 0x2E2 PUSH2 0x668 CALLDATASIZE PUSH1 0x4 PUSH2 0x25F2 JUMP JUMPDEST PUSH2 0x13BD JUMP JUMPDEST CALLVALUE DUP1 ISZERO PUSH2 0x679 JUMPI PUSH1 0x0 DUP1 REVERT JUMPDEST POP PUSH2 0x2E2 PUSH2 0x13C8 JUMP JUMPDEST CALLVALUE DUP1 ISZERO PUSH2 0x68E JUMPI PUSH1 0x0 DUP1 REVERT JUMPDEST POP PUSH2 0x2E2 PUSH2 0x1403 JUMP JUMPDEST CALLVALUE DUP1 ISZERO PUSH2 0x6A3 JUMPI PUSH1 0x0 DUP1 REVERT JUMPDEST POP PUSH2 0x2E2 PUSH2 0x6B2 CALLDATASIZE PUSH1 0x4 PUSH2 0x2625 JUMP JUMPDEST PUSH2 0x143A JUMP JUMPDEST CALLVALUE DUP1 ISZERO PUSH2 0x6C3 JUMPI PUSH1 0x0 DUP1 REVERT JUMPDEST POP PUSH2 0x326 PUSH2 0x6D2 CALLDATASIZE PUSH1 0x4 PUSH2 0x2428 JUMP JUMPDEST PUSH2 0x1472 JUMP JUMPDEST CALLVALUE DUP1 ISZERO PUSH2 0x6E3 JUMPI PUSH1 0x0 DUP1 REVERT JUMPDEST POP PUSH2 0x389 PUSH1 0x11 SLOAD DUP2 JUMP JUMPDEST CALLVALUE DUP1 ISZERO PUSH2 0x6F9 JUMPI PUSH1 0x0 DUP1 REVERT JUMPDEST POP PUSH1 0xE SLOAD PUSH2 0x389 JUMP JUMPDEST CALLVALUE DUP1 ISZERO PUSH2 0x70E JUMPI PUSH1 0x0 DUP1 REVERT JUMPDEST POP PUSH2 0x2F9 PUSH2 0x149C JUMP JUMPDEST CALLVALUE DUP1 ISZERO PUSH2 0x723 JUMPI PUSH1 0x0 DUP1 REVERT JUMPDEST POP PUSH2 0x2F9 PUSH2 0x732 CALLDATASIZE PUSH1 0x4 PUSH2 0x2428 JUMP JUMPDEST PUSH2 0x14A9 JUMP JUMPDEST CALLVALUE DUP1 ISZERO PUSH2 0x743 JUMPI PUSH1 0x0 DUP1 REVERT JUMPDEST POP PUSH2 0x2E2 PUSH2 0x752 CALLDATASIZE PUSH1 0x4 PUSH2 0x2428 JUMP JUMPDEST PUSH2 0x1628 JUMP JUMPDEST CALLVALUE DUP1 ISZERO PUSH2 0x763 JUMPI PUSH1 0x0 DUP1 REVERT JUMPDEST POP PUSH2 0x389 PUSH1 0xF SLOAD DUP2 JUMP JUMPDEST CALLVALUE DUP1 ISZERO PUSH2 0x779 JUMPI PUSH1 0x0 DUP1 REVERT JUMPDEST POP PUSH2 0x2E2 PUSH2 0x788 CALLDATASIZE PUSH1 0x4 PUSH2 0x25A9 JUMP JUMPDEST PUSH2 0x1657 JUMP JUMPDEST CALLVALUE DUP1 ISZERO PUSH2 0x799 JUMPI PUSH1 0x0 DUP1 REVERT JUMPDEST POP PUSH2 0x2AD PUSH2 0x7A8 CALLDATASIZE PUSH1 0x4 PUSH2 0x26A1 JUMP JUMPDEST PUSH1 0x1 PUSH1 0x1 PUSH1 0xA0 SHL SUB SWAP2 DUP3 AND PUSH1 0x0 SWAP1 DUP2 MSTORE PUSH1 0x5 PUSH1 0x20 SWAP1 DUP2 MSTORE PUSH1 0x40 DUP1 DUP4 KECCAK256 SWAP4 SWAP1 SWAP5 AND DUP3 MSTORE SWAP2 SWAP1 SWAP2 MSTORE KECCAK256 SLOAD PUSH1 0xFF AND SWAP1 JUMP JUMPDEST CALLVALUE DUP1 ISZERO PUSH2 0x7E2 JUMPI PUSH1 0x0 DUP1 REVERT JUMPDEST POP PUSH2 0x2E2 PUSH2 0x7F1 CALLDATASIZE PUSH1 0x4 PUSH2 0x26CB JUMP JUMPDEST PUSH2 0x1694 JUMP JUMPDEST CALLVALUE DUP1 ISZERO PUSH2 0x802 JUMPI PUSH1 0x0 DUP1 REVERT JUMPDEST POP PUSH2 0x2E2 PUSH2 0x811 CALLDATASIZE PUSH1 0x4 PUSH2 0x25A9 JUMP JUMPDEST PUSH2 0x16D6 JUMP JUMPDEST CALLVALUE DUP1 ISZERO PUSH2 0x822 JUMPI PUSH1 0x0 DUP1 REVERT JUMPDEST POP PUSH2 0x2E2 PUSH2 0x831 CALLDATASIZE PUSH1 0x4 PUSH2 0x2482 JUMP JUMPDEST PUSH2 0x1713 JUMP JUMPDEST PUSH1 0x0 PUSH1 0x1 PUSH1 0x1 PUSH1 0xE0 SHL SUB NOT DUP3 AND PUSH4 0x780E9D63 PUSH1 0xE0 SHL EQ DUP1 PUSH2 0x85B JUMPI POP PUSH2 0x85B DUP3 PUSH2 0x17AE JUMP JUMPDEST SWAP3 SWAP2 POP POP JUMP JUMPDEST PUSH1 0xA SLOAD PUSH1 0x1 PUSH1 0x1 PUSH1 0xA0 SHL SUB AND CALLER EQ PUSH2 0x894 JUMPI PUSH1 0x40 MLOAD PUSH3 0x461BCD PUSH1 0xE5 SHL DUP2 MSTORE PUSH1 0x4 ADD PUSH2 0x88B SWAP1 PUSH2 0x2740 JUMP JUMPDEST PUSH1 0x40 MLOAD DUP1 SWAP2 SUB SWAP1 REVERT JUMPDEST PUSH1 0x12 DUP1 SLOAD PUSH1 0xFF NOT AND SWAP2 ISZERO ISZERO SWAP2 SWAP1 SWAP2 OR SWAP1 SSTORE JUMP JUMPDEST PUSH1 0x60 PUSH1 0x0 DUP1 SLOAD PUSH2 0x8B6 SWAP1 PUSH2 0x2775 JUMP JUMPDEST DUP1 PUSH1 0x1F ADD PUSH1 0x20 DUP1 SWAP2 DIV MUL PUSH1 0x20 ADD PUSH1 0x40 MLOAD SWAP1 DUP2 ADD PUSH1 0x40 MSTORE DUP1 SWAP3 SWAP2 SWAP1 DUP2 DUP2 MSTORE PUSH1 0x20 ADD DUP3 DUP1 SLOAD PUSH2 0x8E2 SWAP1 PUSH2 0x2775 JUMP JUMPDEST DUP1 ISZERO PUSH2 0x92F JUMPI DUP1 PUSH1 0x1F LT PUSH2 0x904 JUMPI PUSH2 0x100 DUP1 DUP4 SLOAD DIV MUL DUP4 MSTORE SWAP2 PUSH1 0x20 ADD SWAP2 PUSH2 0x92F JUMP JUMPDEST DUP3 ADD SWAP2 SWAP1 PUSH1 0x0 MSTORE PUSH1 0x20 PUSH1 0x0 KECCAK256 SWAP1 JUMPDEST DUP2 SLOAD DUP2 MSTORE SWAP1 PUSH1 0x1 ADD SWAP1 PUSH1 0x20 ADD DUP1 DUP4 GT PUSH2 0x912 JUMPI DUP3 SWAP1 SUB PUSH1 0x1F AND DUP3 ADD SWAP2 JUMPDEST POP POP POP POP POP SWAP1 POP SWAP1 JUMP JUMPDEST PUSH1 0x0 DUP2 DUP2 MSTORE PUSH1 0x2 PUSH1 0x20 MSTORE PUSH1 0x40 DUP2 KECCAK256 SLOAD PUSH1 0x1 PUSH1 0x1 PUSH1 0xA0 SHL SUB AND PUSH2 0x9B2 JUMPI PUSH1 0x40 MLOAD PUSH3 0x461BCD PUSH1 0xE5 SHL DUP2 MSTORE PUSH1 0x20 PUSH1 0x4 DUP3 ADD MSTORE PUSH1 0x2C PUSH1 0x24 DUP3 ADD MSTORE PUSH32 0x4552433732313A20617070726F76656420717565727920666F72206E6F6E6578 PUSH1 0x44 DUP3 ADD MSTORE PUSH12 0x34B9BA32B73A103A37B5B2B7 PUSH1 0xA1 SHL PUSH1 0x64 DUP3 ADD MSTORE PUSH1 0x84 ADD PUSH2 0x88B JUMP JUMPDEST POP PUSH1 0x0 SWAP1 DUP2 MSTORE PUSH1 0x4 PUSH1 0x20 MSTORE PUSH1 0x40 SWAP1 KECCAK256 SLOAD PUSH1 0x1 PUSH1 0x1 PUSH1 0xA0 SHL SUB AND SWAP1 JUMP JUMPDEST PUSH1 0xD DUP1 SLOAD PUSH2 0x9DB SWAP1 PUSH2 0x2775 JUMP JUMPDEST DUP1 PUSH1 0x1F ADD PUSH1 0x20 DUP1 SWAP2 DIV MUL PUSH1 0x20 ADD PUSH1 0x40 MLOAD SWAP1 DUP2 ADD PUSH1 0x40 MSTORE DUP1 SWAP3 SWAP2 SWAP1 DUP2 DUP2 MSTORE PUSH1 0x20 ADD DUP3 DUP1 SLOAD PUSH2 0xA07 SWAP1 PUSH2 0x2775 JUMP JUMPDEST DUP1 ISZERO PUSH2 0xA54 JUMPI DUP1 PUSH1 0x1F LT PUSH2 0xA29 JUMPI PUSH2 0x100 DUP1 DUP4 SLOAD DIV MUL DUP4 MSTORE SWAP2 PUSH1 0x20 ADD SWAP2 PUSH2 0xA54 JUMP JUMPDEST DUP3 ADD SWAP2 SWAP1 PUSH1 0x0 MSTORE PUSH1 0x20 PUSH1 0x0 KECCAK256 SWAP1 JUMPDEST DUP2 SLOAD DUP2 MSTORE SWAP1 PUSH1 0x1 ADD SWAP1 PUSH1 0x20 ADD DUP1 DUP4 GT PUSH2 0xA37 JUMPI DUP3 SWAP1 SUB PUSH1 0x1F AND DUP3 ADD SWAP2 JUMPDEST POP POP POP POP POP DUP2 JUMP JUMPDEST PUSH1 0x0 PUSH2 0xA67 DUP3 PUSH2 0xF57 JUMP JUMPDEST SWAP1 POP DUP1 PUSH1 0x1 PUSH1 0x1 PUSH1 0xA0 SHL SUB AND DUP4 PUSH1 0x1 PUSH1 0x1 PUSH1 0xA0 SHL SUB AND EQ ISZERO PUSH2 0xAD5 JUMPI PUSH1 0x40 MLOAD PUSH3 0x461BCD PUSH1 0xE5 SHL DUP2 MSTORE PUSH1 0x20 PUSH1 0x4 DUP3 ADD MSTORE PUSH1 0x21 PUSH1 0x24 DUP3 ADD MSTORE PUSH32 0x4552433732313A20617070726F76616C20746F2063757272656E74206F776E65 PUSH1 0x44 DUP3 ADD MSTORE PUSH1 0x39 PUSH1 0xF9 SHL PUSH1 0x64 DUP3 ADD MSTORE PUSH1 0x84 ADD PUSH2 0x88B JUMP JUMPDEST CALLER PUSH1 0x1 PUSH1 0x1 PUSH1 0xA0 SHL SUB DUP3 AND EQ DUP1 PUSH2 0xAF1 JUMPI POP PUSH2 0xAF1 DUP2 CALLER PUSH2 0x7A8 JUMP JUMPDEST PUSH2 0xB63 JUMPI PUSH1 0x40 MLOAD PUSH3 0x461BCD PUSH1 0xE5 SHL DUP2 MSTORE PUSH1 0x20 PUSH1 0x4 DUP3 ADD MSTORE PUSH1 0x38 PUSH1 0x24 DUP3 ADD MSTORE PUSH32 0x4552433732313A20617070726F76652063616C6C6572206973206E6F74206F77 PUSH1 0x44 DUP3 ADD MSTORE PUSH32 0x6E6572206E6F7220617070726F76656420666F7220616C6C0000000000000000 PUSH1 0x64 DUP3 ADD MSTORE PUSH1 0x84 ADD PUSH2 0x88B JUMP JUMPDEST PUSH2 0xB6D DUP4 DUP4 PUSH2 0x17FE JUMP JUMPDEST POP POP POP JUMP JUMPDEST PUSH2 0xB7C CALLER DUP3 PUSH2 0x186C JUMP JUMPDEST PUSH2 0xB98 JUMPI PUSH1 0x40 MLOAD PUSH3 0x461BCD PUSH1 0xE5 SHL DUP2 MSTORE PUSH1 0x4 ADD PUSH2 0x88B SWAP1 PUSH2 0x27B0 JUMP JUMPDEST PUSH2 0xB6D DUP4 DUP4 DUP4 PUSH2 0x1963 JUMP JUMPDEST PUSH1 0x0 PUSH2 0xBAE DUP4 PUSH2 0xFDB JUMP JUMPDEST DUP3 LT PUSH2 0xC10 JUMPI PUSH1 0x40 MLOAD PUSH3 0x461BCD PUSH1 0xE5 SHL DUP2 MSTORE PUSH1 0x20 PUSH1 0x4 DUP3 ADD MSTORE PUSH1 0x2B PUSH1 0x24 DUP3 ADD MSTORE PUSH32 0x455243373231456E756D657261626C653A206F776E657220696E646578206F75 PUSH1 0x44 DUP3 ADD MSTORE PUSH11 0x74206F6620626F756E6473 PUSH1 0xA8 SHL PUSH1 0x64 DUP3 ADD MSTORE PUSH1 0x84 ADD PUSH2 0x88B JUMP JUMPDEST POP PUSH1 0x1 PUSH1 0x1 PUSH1 0xA0 SHL SUB SWAP2 SWAP1 SWAP2 AND PUSH1 0x0 SWAP1 DUP2 MSTORE PUSH1 0x6 PUSH1 0x20 SWAP1 DUP2 MSTORE PUSH1 0x40 DUP1 DUP4 KECCAK256 SWAP4 DUP4 MSTORE SWAP3 SWAP1 MSTORE KECCAK256 SLOAD SWAP1 JUMP JUMPDEST PUSH1 0x0 DUP1 JUMPDEST PUSH1 0x13 SLOAD DUP2 LT ISZERO PUSH2 0xC9A JUMPI DUP3 PUSH1 0x1 PUSH1 0x1 PUSH1 0xA0 SHL SUB AND PUSH1 0x13 DUP3 DUP2 SLOAD DUP2 LT PUSH2 0xC64 JUMPI PUSH2 0xC64 PUSH2 0x2801 JUMP JUMPDEST PUSH1 0x0 SWAP2 DUP3 MSTORE PUSH1 0x20 SWAP1 SWAP2 KECCAK256 ADD SLOAD PUSH1 0x1 PUSH1 0x1 PUSH1 0xA0 SHL SUB AND EQ ISZERO PUSH2 0xC88 JUMPI POP PUSH1 0x1 SWAP3 SWAP2 POP POP JUMP JUMPDEST DUP1 PUSH2 0xC92 DUP2 PUSH2 0x282D JUMP JUMPDEST SWAP2 POP POP PUSH2 0xC3D JUMP JUMPDEST POP PUSH1 0x0 SWAP3 SWAP2 POP POP JUMP JUMPDEST PUSH1 0xA SLOAD PUSH1 0x1 PUSH1 0x1 PUSH1 0xA0 SHL SUB AND CALLER EQ PUSH2 0xCCD JUMPI PUSH1 0x40 MLOAD PUSH3 0x461BCD PUSH1 0xE5 SHL DUP2 MSTORE PUSH1 0x4 ADD PUSH2 0x88B SWAP1 PUSH2 0x2740 JUMP JUMPDEST PUSH1 0x12 DUP1 SLOAD SWAP2 ISZERO ISZERO PUSH3 0x10000 MUL PUSH3 0xFF0000 NOT SWAP1 SWAP3 AND SWAP2 SWAP1 SWAP2 OR SWAP1 SSTORE JUMP JUMPDEST PUSH1 0xA SLOAD PUSH1 0x1 PUSH1 0x1 PUSH1 0xA0 SHL SUB AND CALLER EQ PUSH2 0xD13 JUMPI PUSH1 0x40 MLOAD PUSH3 0x461BCD PUSH1 0xE5 SHL DUP2 MSTORE PUSH1 0x4 ADD PUSH2 0x88B SWAP1 PUSH2 0x2740 JUMP JUMPDEST PUSH1 0x1 DUP1 PUSH1 0x0 PUSH2 0xD2A PUSH1 0xA SLOAD PUSH1 0x1 PUSH1 0x1 PUSH1 0xA0 SHL SUB AND SWAP1 JUMP JUMPDEST PUSH1 0x1 PUSH1 0x1 PUSH1 0xA0 SHL SUB AND DUP3 PUSH2 0xD3E DUP6 SELFBALANCE PUSH2 0x2848 JUMP JUMPDEST PUSH2 0xD48 SWAP2 SWAP1 PUSH2 0x287D JUMP JUMPDEST PUSH1 0x40 MLOAD PUSH1 0x0 DUP2 DUP2 DUP2 DUP6 DUP8 GAS CALL SWAP3 POP POP POP RETURNDATASIZE DUP1 PUSH1 0x0 DUP2 EQ PUSH2 0xD84 JUMPI PUSH1 0x40 MLOAD SWAP2 POP PUSH1 0x1F NOT PUSH1 0x3F RETURNDATASIZE ADD AND DUP3 ADD PUSH1 0x40 MSTORE RETURNDATASIZE DUP3 MSTORE RETURNDATASIZE PUSH1 0x0 PUSH1 0x20 DUP5 ADD RETURNDATACOPY PUSH2 0xD89 JUMP JUMPDEST PUSH1 0x60 SWAP2 POP JUMPDEST POP POP SWAP1 POP DUP1 PUSH2 0xB6D JUMPI PUSH1 0x0 DUP1 REVERT JUMPDEST PUSH2 0xB6D DUP4 DUP4 DUP4 PUSH1 0x40 MLOAD DUP1 PUSH1 0x20 ADD PUSH1 0x40 MSTORE DUP1 PUSH1 0x0 DUP2 MSTORE POP PUSH2 0x143A JUMP JUMPDEST PUSH1 0x60 PUSH1 0x0 PUSH2 0xDBF DUP4 PUSH2 0xFDB JUMP JUMPDEST SWAP1 POP PUSH1 0x0 DUP2 PUSH8 0xFFFFFFFFFFFFFFFF DUP2 GT ISZERO PUSH2 0xDDC JUMPI PUSH2 0xDDC PUSH2 0x251D JUMP JUMPDEST PUSH1 0x40 MLOAD SWAP1 DUP1 DUP3 MSTORE DUP1 PUSH1 0x20 MUL PUSH1 0x20 ADD DUP3 ADD PUSH1 0x40 MSTORE DUP1 ISZERO PUSH2 0xE05 JUMPI DUP2 PUSH1 0x20 ADD PUSH1 0x20 DUP3 MUL DUP1 CALLDATASIZE DUP4 CALLDATACOPY ADD SWAP1 POP JUMPDEST POP SWAP1 POP PUSH1 0x0 JUMPDEST DUP3 DUP2 LT ISZERO PUSH2 0xE4C JUMPI PUSH2 0xE1D DUP6 DUP3 PUSH2 0xBA3 JUMP JUMPDEST DUP3 DUP3 DUP2 MLOAD DUP2 LT PUSH2 0xE2F JUMPI PUSH2 0xE2F PUSH2 0x2801 JUMP JUMPDEST PUSH1 0x20 SWAP1 DUP2 MUL SWAP2 SWAP1 SWAP2 ADD ADD MSTORE DUP1 PUSH2 0xE44 DUP2 PUSH2 0x282D JUMP JUMPDEST SWAP2 POP POP PUSH2 0xE0B JUMP JUMPDEST POP SWAP4 SWAP3 POP POP POP JUMP JUMPDEST PUSH1 0xA SLOAD PUSH1 0x1 PUSH1 0x1 PUSH1 0xA0 SHL SUB AND CALLER EQ PUSH2 0xE7E JUMPI PUSH1 0x40 MLOAD PUSH3 0x461BCD PUSH1 0xE5 SHL DUP2 MSTORE PUSH1 0x4 ADD PUSH2 0x88B SWAP1 PUSH2 0x2740 JUMP JUMPDEST PUSH1 0xE SSTORE JUMP JUMPDEST PUSH1 0x0 PUSH2 0xE8E PUSH1 0x8 SLOAD SWAP1 JUMP JUMPDEST DUP3 LT PUSH2 0xEF1 JUMPI PUSH1 0x40 MLOAD PUSH3 0x461BCD PUSH1 0xE5 SHL DUP2 MSTORE PUSH1 0x20 PUSH1 0x4 DUP3 ADD MSTORE PUSH1 0x2C PUSH1 0x24 DUP3 ADD MSTORE PUSH32 0x455243373231456E756D657261626C653A20676C6F62616C20696E646578206F PUSH1 0x44 DUP3 ADD MSTORE PUSH12 0x7574206F6620626F756E6473 PUSH1 0xA0 SHL PUSH1 0x64 DUP3 ADD MSTORE PUSH1 0x84 ADD PUSH2 0x88B JUMP JUMPDEST PUSH1 0x8 DUP3 DUP2 SLOAD DUP2 LT PUSH2 0xF04 JUMPI PUSH2 0xF04 PUSH2 0x2801 JUMP JUMPDEST SWAP1 PUSH1 0x0 MSTORE PUSH1 0x20 PUSH1 0x0 KECCAK256 ADD SLOAD SWAP1 POP SWAP2 SWAP1 POP JUMP JUMPDEST PUSH1 0xA SLOAD PUSH1 0x1 PUSH1 0x1 PUSH1 0xA0 SHL SUB AND CALLER EQ PUSH2 0xF40 JUMPI PUSH1 0x40 MLOAD PUSH3 0x461BCD PUSH1 0xE5 SHL DUP2 MSTORE PUSH1 0x4 ADD PUSH2 0x88B SWAP1 PUSH2 0x2740 JUMP JUMPDEST DUP1 MLOAD PUSH2 0xF53 SWAP1 PUSH1 0xB SWAP1 PUSH1 0x20 DUP5 ADD SWAP1 PUSH2 0x2250 JUMP JUMPDEST POP POP JUMP JUMPDEST PUSH1 0x0 DUP2 DUP2 MSTORE PUSH1 0x2 PUSH1 0x20 MSTORE PUSH1 0x40 DUP2 KECCAK256 SLOAD PUSH1 0x1 PUSH1 0x1 PUSH1 0xA0 SHL SUB AND DUP1 PUSH2 0x85B JUMPI PUSH1 0x40 MLOAD PUSH3 0x461BCD PUSH1 0xE5 SHL DUP2 MSTORE PUSH1 0x20 PUSH1 0x4 DUP3 ADD MSTORE PUSH1 0x29 PUSH1 0x24 DUP3 ADD MSTORE PUSH32 0x4552433732313A206F776E657220717565727920666F72206E6F6E6578697374 PUSH1 0x44 DUP3 ADD MSTORE PUSH9 0x32B73A103A37B5B2B7 PUSH1 0xB9 SHL PUSH1 0x64 DUP3 ADD MSTORE PUSH1 0x84 ADD PUSH2 0x88B JUMP JUMPDEST PUSH1 0xB DUP1 SLOAD PUSH2 0x9DB SWAP1 PUSH2 0x2775 JUMP JUMPDEST PUSH1 0x0 PUSH1 0x1 PUSH1 0x1 PUSH1 0xA0 SHL SUB DUP3 AND PUSH2 0x1046 JUMPI PUSH1 0x40 MLOAD PUSH3 0x461BCD PUSH1 0xE5 SHL DUP2 MSTORE PUSH1 0x20 PUSH1 0x4 DUP3 ADD MSTORE PUSH1 0x2A PUSH1 0x24 DUP3 ADD MSTORE PUSH32 0x4552433732313A2062616C616E636520717565727920666F7220746865207A65 PUSH1 0x44 DUP3 ADD MSTORE PUSH10 0x726F2061646472657373 PUSH1 0xB0 SHL PUSH1 0x64 DUP3 ADD MSTORE PUSH1 0x84 ADD PUSH2 0x88B JUMP JUMPDEST POP PUSH1 0x1 PUSH1 0x1 PUSH1 0xA0 SHL SUB AND PUSH1 0x0 SWAP1 DUP2 MSTORE PUSH1 0x3 PUSH1 0x20 MSTORE PUSH1 0x40 SWAP1 KECCAK256 SLOAD SWAP1 JUMP JUMPDEST PUSH1 0xA SLOAD PUSH1 0x1 PUSH1 0x1 PUSH1 0xA0 SHL SUB AND CALLER EQ PUSH2 0x108C JUMPI PUSH1 0x40 MLOAD PUSH3 0x461BCD PUSH1 0xE5 SHL DUP2 MSTORE PUSH1 0x4 ADD PUSH2 0x88B SWAP1 PUSH2 0x2740 JUMP JUMPDEST PUSH2 0x1096 PUSH1 0x0 PUSH2 0x1B0E JUMP JUMPDEST JUMP JUMPDEST PUSH1 0xA SLOAD PUSH1 0x1 PUSH1 0x1 PUSH1 0xA0 SHL SUB AND CALLER EQ PUSH2 0x10C2 JUMPI PUSH1 0x40 MLOAD PUSH3 0x461BCD PUSH1 0xE5 SHL DUP2 MSTORE PUSH1 0x4 ADD PUSH2 0x88B SWAP1 PUSH2 0x2740 JUMP JUMPDEST PUSH1 0x10 SSTORE JUMP JUMPDEST PUSH1 0x60 PUSH1 0x1 DUP1 SLOAD PUSH2 0x8B6 SWAP1 PUSH2 0x2775 JUMP JUMPDEST PUSH1 0x12 SLOAD PUSH1 0xFF AND ISZERO PUSH2 0x1122 JUMPI PUSH1 0x40 MLOAD PUSH3 0x461BCD PUSH1 0xE5 SHL DUP2 MSTORE PUSH1 0x20 PUSH1 0x4 DUP3 ADD MSTORE PUSH1 0x16 PUSH1 0x24 DUP3 ADD MSTORE PUSH22 0x1D1A194818DBDB9D1C9858DD081A5CC81C185D5CD959 PUSH1 0x52 SHL PUSH1 0x44 DUP3 ADD MSTORE PUSH1 0x64 ADD PUSH2 0x88B JUMP JUMPDEST PUSH1 0x0 PUSH2 0x112D PUSH1 0x8 SLOAD SWAP1 JUMP JUMPDEST SWAP1 POP PUSH1 0x0 DUP3 GT PUSH2 0x117F JUMPI PUSH1 0x40 MLOAD PUSH3 0x461BCD PUSH1 0xE5 SHL DUP2 MSTORE PUSH1 0x20 PUSH1 0x4 DUP3 ADD MSTORE PUSH1 0x1B PUSH1 0x24 DUP3 ADD MSTORE PUSH32 0x6E65656420746F206D696E74206174206C656173742031204E46540000000000 PUSH1 0x44 DUP3 ADD MSTORE PUSH1 0x64 ADD PUSH2 0x88B JUMP JUMPDEST PUSH1 0x10 SLOAD DUP3 GT ISZERO PUSH2 0x11DD JUMPI PUSH1 0x40 MLOAD PUSH3 0x461BCD PUSH1 0xE5 SHL DUP2 MSTORE PUSH1 0x20 PUSH1 0x4 DUP3 ADD MSTORE PUSH1 0x24 DUP1 DUP3 ADD MSTORE PUSH32 0x6D6178206D696E7420616D6F756E74207065722073657373696F6E2065786365 PUSH1 0x44 DUP3 ADD MSTORE PUSH4 0x19591959 PUSH1 0xE2 SHL PUSH1 0x64 DUP3 ADD MSTORE PUSH1 0x84 ADD PUSH2 0x88B JUMP JUMPDEST PUSH1 0xF SLOAD PUSH2 0x11EA DUP4 DUP4 PUSH2 0x2891 JUMP JUMPDEST GT ISZERO PUSH2 0x1231 JUMPI PUSH1 0x40 MLOAD PUSH3 0x461BCD PUSH1 0xE5 SHL DUP2 MSTORE PUSH1 0x20 PUSH1 0x4 DUP3 ADD MSTORE PUSH1 0x16 PUSH1 0x24 DUP3 ADD MSTORE PUSH22 0x1B585E08139195081B1A5B5A5D08195E18D959591959 PUSH1 0x52 SHL PUSH1 0x44 DUP3 ADD MSTORE PUSH1 0x64 ADD PUSH2 0x88B JUMP JUMPDEST PUSH1 0xA SLOAD PUSH1 0x1 PUSH1 0x1 PUSH1 0xA0 SHL SUB AND CALLER EQ PUSH2 0x136D JUMPI PUSH1 0x12 SLOAD PUSH3 0x10000 SWAP1 DIV PUSH1 0xFF AND ISZERO ISZERO PUSH1 0x1 EQ ISZERO PUSH2 0x131B JUMPI PUSH2 0x1262 CALLER PUSH2 0xC39 JUMP JUMPDEST PUSH2 0x12AE JUMPI PUSH1 0x40 MLOAD PUSH3 0x461BCD PUSH1 0xE5 SHL DUP2 MSTORE PUSH1 0x20 PUSH1 0x4 DUP3 ADD MSTORE PUSH1 0x17 PUSH1 0x24 DUP3 ADD MSTORE PUSH32 0x75736572206973206E6F742077686974656C6973746564000000000000000000 PUSH1 0x44 DUP3 ADD MSTORE PUSH1 0x64 ADD PUSH2 0x88B JUMP JUMPDEST CALLER PUSH1 0x0 SWAP1 DUP2 MSTORE PUSH1 0x14 PUSH1 0x20 MSTORE PUSH1 0x40 SWAP1 KECCAK256 SLOAD PUSH1 0x11 SLOAD PUSH2 0x12CB DUP5 DUP4 PUSH2 0x2891 JUMP JUMPDEST GT ISZERO PUSH2 0x1319 JUMPI PUSH1 0x40 MLOAD PUSH3 0x461BCD PUSH1 0xE5 SHL DUP2 MSTORE PUSH1 0x20 PUSH1 0x4 DUP3 ADD MSTORE PUSH1 0x1C PUSH1 0x24 DUP3 ADD MSTORE PUSH32 0x6D6178204E465420706572206164647265737320657863656564656400000000 PUSH1 0x44 DUP3 ADD MSTORE PUSH1 0x64 ADD PUSH2 0x88B JUMP JUMPDEST POP JUMPDEST DUP2 PUSH1 0xE SLOAD PUSH2 0x1329 SWAP2 SWAP1 PUSH2 0x2848 JUMP JUMPDEST CALLVALUE LT ISZERO PUSH2 0x136D JUMPI PUSH1 0x40 MLOAD PUSH3 0x461BCD PUSH1 0xE5 SHL DUP2 MSTORE PUSH1 0x20 PUSH1 0x4 DUP3 ADD MSTORE PUSH1 0x12 PUSH1 0x24 DUP3 ADD MSTORE PUSH18 0x696E73756666696369656E742066756E6473 PUSH1 0x70 SHL PUSH1 0x44 DUP3 ADD MSTORE PUSH1 0x64 ADD PUSH2 0x88B JUMP JUMPDEST PUSH1 0x1 JUMPDEST DUP3 DUP2 GT PUSH2 0xB6D JUMPI CALLER PUSH1 0x0 SWAP1 DUP2 MSTORE PUSH1 0x14 PUSH1 0x20 MSTORE PUSH1 0x40 DUP2 KECCAK256 DUP1 SLOAD SWAP2 PUSH2 0x1392 DUP4 PUSH2 0x282D JUMP JUMPDEST SWAP1 SWAP2 SSTORE POP PUSH2 0x13AB SWAP1 POP CALLER PUSH2 0x13A6 DUP4 DUP6 PUSH2 0x2891 JUMP JUMPDEST PUSH2 0x1B60 JUMP JUMPDEST DUP1 PUSH2 0x13B5 DUP2 PUSH2 0x282D JUMP JUMPDEST SWAP2 POP POP PUSH2 0x1370 JUMP JUMPDEST PUSH2 0xF53 CALLER DUP4 DUP4 PUSH2 0x1B7A JUMP JUMPDEST PUSH1 0xA SLOAD PUSH1 0x1 PUSH1 0x1 PUSH1 0xA0 SHL SUB AND CALLER EQ PUSH2 0x13F2 JUMPI PUSH1 0x40 MLOAD PUSH3 0x461BCD PUSH1 0xE5 SHL DUP2 MSTORE PUSH1 0x4 ADD PUSH2 0x88B SWAP1 PUSH2 0x2740 JUMP JUMPDEST PUSH1 0x12 DUP1 SLOAD PUSH2 0xFF00 NOT AND PUSH2 0x100 OR SWAP1 SSTORE JUMP JUMPDEST PUSH1 0xA SLOAD PUSH1 0x1 PUSH1 0x1 PUSH1 0xA0 SHL SUB AND CALLER EQ PUSH2 0x142D JUMPI PUSH1 0x40 MLOAD PUSH3 0x461BCD PUSH1 0xE5 SHL DUP2 MSTORE PUSH1 0x4 ADD PUSH2 0x88B SWAP1 PUSH2 0x2740 JUMP JUMPDEST PUSH1 0x12 DUP1 SLOAD PUSH2 0xFF00 NOT AND SWAP1 SSTORE JUMP JUMPDEST PUSH2 0x1444 CALLER DUP4 PUSH2 0x186C JUMP JUMPDEST PUSH2 0x1460 JUMPI PUSH1 0x40 MLOAD PUSH3 0x461BCD PUSH1 0xE5 SHL DUP2 MSTORE PUSH1 0x4 ADD PUSH2 0x88B SWAP1 PUSH2 0x27B0 JUMP JUMPDEST PUSH2 0x146C DUP5 DUP5 DUP5 DUP5 PUSH2 0x1C49 JUMP JUMPDEST POP POP POP POP JUMP JUMPDEST PUSH1 0x13 DUP2 DUP2 SLOAD DUP2 LT PUSH2 0x1482 JUMPI PUSH1 0x0 DUP1 REVERT JUMPDEST PUSH1 0x0 SWAP2 DUP3 MSTORE PUSH1 0x20 SWAP1 SWAP2 KECCAK256 ADD SLOAD PUSH1 0x1 PUSH1 0x1 PUSH1 0xA0 SHL SUB AND SWAP1 POP DUP2 JUMP JUMPDEST PUSH1 0xC DUP1 SLOAD PUSH2 0x9DB SWAP1 PUSH2 0x2775 JUMP JUMPDEST PUSH1 0x0 DUP2 DUP2 MSTORE PUSH1 0x2 PUSH1 0x20 MSTORE PUSH1 0x40 SWAP1 KECCAK256 SLOAD PUSH1 0x60 SWAP1 PUSH1 0x1 PUSH1 0x1 PUSH1 0xA0 SHL SUB AND PUSH2 0x1528 JUMPI PUSH1 0x40 MLOAD PUSH3 0x461BCD PUSH1 0xE5 SHL DUP2 MSTORE PUSH1 0x20 PUSH1 0x4 DUP3 ADD MSTORE PUSH1 0x2F PUSH1 0x24 DUP3 ADD MSTORE PUSH32 0x4552433732314D657461646174613A2055524920717565727920666F72206E6F PUSH1 0x44 DUP3 ADD MSTORE PUSH15 0x3732BC34B9BA32B73A103A37B5B2B7 PUSH1 0x89 SHL PUSH1 0x64 DUP3 ADD MSTORE PUSH1 0x84 ADD PUSH2 0x88B JUMP JUMPDEST PUSH1 0x12 SLOAD PUSH2 0x100 SWAP1 DIV PUSH1 0xFF AND PUSH2 0x15C9 JUMPI PUSH1 0xD DUP1 SLOAD PUSH2 0x1544 SWAP1 PUSH2 0x2775 JUMP JUMPDEST DUP1 PUSH1 0x1F ADD PUSH1 0x20 DUP1 SWAP2 DIV MUL PUSH1 0x20 ADD PUSH1 0x40 MLOAD SWAP1 DUP2 ADD PUSH1 0x40 MSTORE DUP1 SWAP3 SWAP2 SWAP1 DUP2 DUP2 MSTORE PUSH1 0x20 ADD DUP3 DUP1 SLOAD PUSH2 0x1570 SWAP1 PUSH2 0x2775 JUMP JUMPDEST DUP1 ISZERO PUSH2 0x15BD JUMPI DUP1 PUSH1 0x1F LT PUSH2 0x1592 JUMPI PUSH2 0x100 DUP1 DUP4 SLOAD DIV MUL DUP4 MSTORE SWAP2 PUSH1 0x20 ADD SWAP2 PUSH2 0x15BD JUMP JUMPDEST DUP3 ADD SWAP2 SWAP1 PUSH1 0x0 MSTORE PUSH1 0x20 PUSH1 0x0 KECCAK256 SWAP1 JUMPDEST DUP2 SLOAD DUP2 MSTORE SWAP1 PUSH1 0x1 ADD SWAP1 PUSH1 0x20 ADD DUP1 DUP4 GT PUSH2 0x15A0 JUMPI DUP3 SWAP1 SUB PUSH1 0x1F AND DUP3 ADD SWAP2 JUMPDEST POP POP POP POP POP SWAP1 POP SWAP2 SWAP1 POP JUMP JUMPDEST PUSH1 0x0 PUSH2 0x15D3 PUSH2 0x1C7C JUMP JUMPDEST SWAP1 POP PUSH1 0x0 DUP2 MLOAD GT PUSH2 0x15F3 JUMPI PUSH1 0x40 MLOAD DUP1 PUSH1 0x20 ADD PUSH1 0x40 MSTORE DUP1 PUSH1 0x0 DUP2 MSTORE POP PUSH2 0x1621 JUMP JUMPDEST DUP1 PUSH2 0x15FD DUP5 PUSH2 0x1C8B JUMP JUMPDEST PUSH1 0xC PUSH1 0x40 MLOAD PUSH1 0x20 ADD PUSH2 0x1611 SWAP4 SWAP3 SWAP2 SWAP1 PUSH2 0x28A9 JUMP JUMPDEST PUSH1 0x40 MLOAD PUSH1 0x20 DUP2 DUP4 SUB SUB DUP2 MSTORE SWAP1 PUSH1 0x40 MSTORE JUMPDEST SWAP4 SWAP3 POP POP POP JUMP JUMPDEST PUSH1 0xA SLOAD PUSH1 0x1 PUSH1 0x1 PUSH1 0xA0 SHL SUB AND CALLER EQ PUSH2 0x1652 JUMPI PUSH1 0x40 MLOAD PUSH3 0x461BCD PUSH1 0xE5 SHL DUP2 MSTORE PUSH1 0x4 ADD PUSH2 0x88B SWAP1 PUSH2 0x2740 JUMP JUMPDEST PUSH1 0x11 SSTORE JUMP JUMPDEST PUSH1 0xA SLOAD PUSH1 0x1 PUSH1 0x1 PUSH1 0xA0 SHL SUB AND CALLER EQ PUSH2 0x1681 JUMPI PUSH1 0x40 MLOAD PUSH3 0x461BCD PUSH1 0xE5 SHL DUP2 MSTORE PUSH1 0x4 ADD PUSH2 0x88B SWAP1 PUSH2 0x2740 JUMP JUMPDEST DUP1 MLOAD PUSH2 0xF53 SWAP1 PUSH1 0xC SWAP1 PUSH1 0x20 DUP5 ADD SWAP1 PUSH2 0x2250 JUMP JUMPDEST PUSH1 0xA SLOAD PUSH1 0x1 PUSH1 0x1 PUSH1 0xA0 SHL SUB AND CALLER EQ PUSH2 0x16BE JUMPI PUSH1 0x40 MLOAD PUSH3 0x461BCD PUSH1 0xE5 SHL DUP2 MSTORE PUSH1 0x4 ADD PUSH2 0x88B SWAP1 PUSH2 0x2740 JUMP JUMPDEST PUSH2 0x16CA PUSH1 0x13 PUSH1 0x0 PUSH2 0x22D4 JUMP JUMPDEST PUSH2 0xB6D PUSH1 0x13 DUP4 DUP4 PUSH2 0x22F2 JUMP JUMPDEST PUSH1 0xA SLOAD PUSH1 0x1 PUSH1 0x1 PUSH1 0xA0 SHL SUB AND CALLER EQ PUSH2 0x1700 JUMPI PUSH1 0x40 MLOAD PUSH3 0x461BCD PUSH1 0xE5 SHL DUP2 MSTORE PUSH1 0x4 ADD PUSH2 0x88B SWAP1 PUSH2 0x2740 JUMP JUMPDEST DUP1 MLOAD PUSH2 0xF53 SWAP1 PUSH1 0xD SWAP1 PUSH1 0x20 DUP5 ADD SWAP1 PUSH2 0x2250 JUMP JUMPDEST PUSH1 0xA SLOAD PUSH1 0x1 PUSH1 0x1 PUSH1 0xA0 SHL SUB AND CALLER EQ PUSH2 0x173D JUMPI PUSH1 0x40 MLOAD PUSH3 0x461BCD PUSH1 0xE5 SHL DUP2 MSTORE PUSH1 0x4 ADD PUSH2 0x88B SWAP1 PUSH2 0x2740 JUMP JUMPDEST PUSH1 0x1 PUSH1 0x1 PUSH1 0xA0 SHL SUB DUP2 AND PUSH2 0x17A2 JUMPI PUSH1 0x40 MLOAD PUSH3 0x461BCD PUSH1 0xE5 SHL DUP2 MSTORE PUSH1 0x20 PUSH1 0x4 DUP3 ADD MSTORE PUSH1 0x26 PUSH1 0x24 DUP3 ADD MSTORE PUSH32 0x4F776E61626C653A206E6577206F776E657220697320746865207A65726F2061 PUSH1 0x44 DUP3 ADD MSTORE PUSH6 0x646472657373 PUSH1 0xD0 SHL PUSH1 0x64 DUP3 ADD MSTORE PUSH1 0x84 ADD PUSH2 0x88B JUMP JUMPDEST PUSH2 0x17AB DUP2 PUSH2 0x1B0E JUMP JUMPDEST POP JUMP JUMPDEST PUSH1 0x0 PUSH1 0x1 PUSH1 0x1 PUSH1 0xE0 SHL SUB NOT DUP3 AND PUSH4 0x80AC58CD PUSH1 0xE0 SHL EQ DUP1 PUSH2 0x17DF JUMPI POP PUSH1 0x1 PUSH1 0x1 PUSH1 0xE0 SHL SUB NOT DUP3 AND PUSH4 0x5B5E139F PUSH1 0xE0 SHL EQ JUMPDEST DUP1 PUSH2 0x85B JUMPI POP PUSH4 0x1FFC9A7 PUSH1 0xE0 SHL PUSH1 0x1 PUSH1 0x1 PUSH1 0xE0 SHL SUB NOT DUP4 AND EQ PUSH2 0x85B JUMP JUMPDEST PUSH1 0x0 DUP2 DUP2 MSTORE PUSH1 0x4 PUSH1 0x20 MSTORE PUSH1 0x40 SWAP1 KECCAK256 DUP1 SLOAD PUSH1 0x1 PUSH1 0x1 PUSH1 0xA0 SHL SUB NOT AND PUSH1 0x1 PUSH1 0x1 PUSH1 0xA0 SHL SUB DUP5 AND SWAP1 DUP2 OR SWAP1 SWAP2 SSTORE DUP2 SWAP1 PUSH2 0x1833 DUP3 PUSH2 0xF57 JUMP JUMPDEST PUSH1 0x1 PUSH1 0x1 PUSH1 0xA0 SHL SUB AND PUSH32 0x8C5BE1E5EBEC7D5BD14F71427D1E84F3DD0314C0F7B2291E5B200AC8C7C3B925 PUSH1 0x40 MLOAD PUSH1 0x40 MLOAD DUP1 SWAP2 SUB SWAP1 LOG4 POP POP JUMP JUMPDEST PUSH1 0x0 DUP2 DUP2 MSTORE PUSH1 0x2 PUSH1 0x20 MSTORE PUSH1 0x40 DUP2 KECCAK256 SLOAD PUSH1 0x1 PUSH1 0x1 PUSH1 0xA0 SHL SUB AND PUSH2 0x18E5 JUMPI PUSH1 0x40 MLOAD PUSH3 0x461BCD PUSH1 0xE5 SHL DUP2 MSTORE PUSH1 0x20 PUSH1 0x4 DUP3 ADD MSTORE PUSH1 0x2C PUSH1 0x24 DUP3 ADD MSTORE PUSH32 0x4552433732313A206F70657261746F7220717565727920666F72206E6F6E6578 PUSH1 0x44 DUP3 ADD MSTORE PUSH12 0x34B9BA32B73A103A37B5B2B7 PUSH1 0xA1 SHL PUSH1 0x64 DUP3 ADD MSTORE PUSH1 0x84 ADD PUSH2 0x88B JUMP JUMPDEST PUSH1 0x0 PUSH2 0x18F0 DUP4 PUSH2 0xF57 JUMP JUMPDEST SWAP1 POP DUP1 PUSH1 0x1 PUSH1 0x1 PUSH1 0xA0 SHL SUB AND DUP5 PUSH1 0x1 PUSH1 0x1 PUSH1 0xA0 SHL SUB AND EQ DUP1 PUSH2 0x192B JUMPI POP DUP4 PUSH1 0x1 PUSH1 0x1 PUSH1 0xA0 SHL SUB AND PUSH2 0x1920 DUP5 PUSH2 0x939 JUMP JUMPDEST PUSH1 0x1 PUSH1 0x1 PUSH1 0xA0 SHL SUB AND EQ JUMPDEST DUP1 PUSH2 0x195B JUMPI POP PUSH1 0x1 PUSH1 0x1 PUSH1 0xA0 SHL SUB DUP1 DUP3 AND PUSH1 0x0 SWAP1 DUP2 MSTORE PUSH1 0x5 PUSH1 0x20 SWAP1 DUP2 MSTORE PUSH1 0x40 DUP1 DUP4 KECCAK256 SWAP4 DUP9 AND DUP4 MSTORE SWAP3 SWAP1 MSTORE KECCAK256 SLOAD PUSH1 0xFF AND JUMPDEST SWAP5 SWAP4 POP POP POP POP JUMP JUMPDEST DUP3 PUSH1 0x1 PUSH1 0x1 PUSH1 0xA0 SHL SUB AND PUSH2 0x1976 DUP3 PUSH2 0xF57 JUMP JUMPDEST PUSH1 0x1 PUSH1 0x1 PUSH1 0xA0 SHL SUB AND EQ PUSH2 0x19DE JUMPI PUSH1 0x40 MLOAD PUSH3 0x461BCD PUSH1 0xE5 SHL DUP2 MSTORE PUSH1 0x20 PUSH1 0x4 DUP3 ADD MSTORE PUSH1 0x29 PUSH1 0x24 DUP3 ADD MSTORE PUSH32 0x4552433732313A207472616E73666572206F6620746F6B656E20746861742069 PUSH1 0x44 DUP3 ADD MSTORE PUSH9 0x39903737BA1037BBB7 PUSH1 0xB9 SHL PUSH1 0x64 DUP3 ADD MSTORE PUSH1 0x84 ADD PUSH2 0x88B JUMP JUMPDEST PUSH1 0x1 PUSH1 0x1 PUSH1 0xA0 SHL SUB DUP3 AND PUSH2 0x1A40 JUMPI PUSH1 0x40 MLOAD PUSH3 0x461BCD PUSH1 0xE5 SHL DUP2 MSTORE PUSH1 0x20 PUSH1 0x4 DUP3 ADD MSTORE PUSH1 0x24 DUP1 DUP3 ADD MSTORE PUSH32 0x4552433732313A207472616E7366657220746F20746865207A65726F20616464 PUSH1 0x44 DUP3 ADD MSTORE PUSH4 0x72657373 PUSH1 0xE0 SHL PUSH1 0x64 DUP3 ADD MSTORE PUSH1 0x84 ADD PUSH2 0x88B JUMP JUMPDEST PUSH2 0x1A4B DUP4 DUP4 DUP4 PUSH2 0x1D89 JUMP JUMPDEST PUSH2 0x1A56 PUSH1 0x0 DUP3 PUSH2 0x17FE JUMP JUMPDEST PUSH1 0x1 PUSH1 0x1 PUSH1 0xA0 SHL SUB DUP4 AND PUSH1 0x0 SWAP1 DUP2 MSTORE PUSH1 0x3 PUSH1 0x20 MSTORE PUSH1 0x40 DUP2 KECCAK256 DUP1 SLOAD PUSH1 0x1 SWAP3 SWAP1 PUSH2 0x1A7F SWAP1 DUP5 SWAP1 PUSH2 0x296D JUMP JUMPDEST SWAP1 SWAP2 SSTORE POP POP PUSH1 0x1 PUSH1 0x1 PUSH1 0xA0 SHL SUB DUP3 AND PUSH1 0x0 SWAP1 DUP2 MSTORE PUSH1 0x3 PUSH1 0x20 MSTORE PUSH1 0x40 DUP2 KECCAK256 DUP1 SLOAD PUSH1 0x1 SWAP3 SWAP1 PUSH2 0x1AAD SWAP1 DUP5 SWAP1 PUSH2 0x2891 JUMP JUMPDEST SWAP1 SWAP2 SSTORE POP POP PUSH1 0x0 DUP2 DUP2 MSTORE PUSH1 0x2 PUSH1 0x20 MSTORE PUSH1 0x40 DUP1 DUP3 KECCAK256 DUP1 SLOAD PUSH1 0x1 PUSH1 0x1 PUSH1 0xA0 SHL SUB NOT AND PUSH1 0x1 PUSH1 0x1 PUSH1 0xA0 SHL SUB DUP7 DUP2 AND SWAP2 DUP3 OR SWAP1 SWAP3 SSTORE SWAP2 MLOAD DUP5 SWAP4 SWAP2 DUP8 AND SWAP2 PUSH32 0xDDF252AD1BE2C89B69C2B068FC378DAA952BA7F163C4A11628F55A4DF523B3EF SWAP2 LOG4 POP POP POP JUMP JUMPDEST PUSH1 0xA DUP1 SLOAD PUSH1 0x1 PUSH1 0x1 PUSH1 0xA0 SHL SUB DUP4 DUP2 AND PUSH1 0x1 PUSH1 0x1 PUSH1 0xA0 SHL SUB NOT DUP4 AND DUP2 OR SWAP1 SWAP4 SSTORE PUSH1 0x40 MLOAD SWAP2 AND SWAP2 SWAP1 DUP3 SWAP1 PUSH32 0x8BE0079C531659141344CD1FD0A4F28419497F9722A3DAAFE3B4186F6B6457E0 SWAP1 PUSH1 0x0 SWAP1 LOG3 POP POP JUMP JUMPDEST PUSH2 0xF53 DUP3 DUP3 PUSH1 0x40 MLOAD DUP1 PUSH1 0x20 ADD PUSH1 0x40 MSTORE DUP1 PUSH1 0x0 DUP2 MSTORE POP PUSH2 0x1E41 JUMP JUMPDEST DUP2 PUSH1 0x1 PUSH1 0x1 PUSH1 0xA0 SHL SUB AND DUP4 PUSH1 0x1 PUSH1 0x1 PUSH1 0xA0 SHL SUB AND EQ ISZERO PUSH2 0x1BDC JUMPI PUSH1 0x40 MLOAD PUSH3 0x461BCD PUSH1 0xE5 SHL DUP2 MSTORE PUSH1 0x20 PUSH1 0x4 DUP3 ADD MSTORE PUSH1 0x19 PUSH1 0x24 DUP3 ADD MSTORE PUSH32 0x4552433732313A20617070726F766520746F2063616C6C657200000000000000 PUSH1 0x44 DUP3 ADD MSTORE PUSH1 0x64 ADD PUSH2 0x88B JUMP JUMPDEST PUSH1 0x1 PUSH1 0x1 PUSH1 0xA0 SHL SUB DUP4 DUP2 AND PUSH1 0x0 DUP2 DUP2 MSTORE PUSH1 0x5 PUSH1 0x20 SWAP1 DUP2 MSTORE PUSH1 0x40 DUP1 DUP4 KECCAK256 SWAP5 DUP8 AND DUP1 DUP5 MSTORE SWAP5 DUP3 MSTORE SWAP2 DUP3 SWAP1 KECCAK256 DUP1 SLOAD PUSH1 0xFF NOT AND DUP7 ISZERO ISZERO SWAP1 DUP2 OR SWAP1 SWAP2 SSTORE SWAP2 MLOAD SWAP2 DUP3 MSTORE PUSH32 0x17307EAB39AB6107E8899845AD3D59BD9653F200F220920489CA2B5937696C31 SWAP2 ADD PUSH1 0x40 MLOAD DUP1 SWAP2 SUB SWAP1 LOG3 POP POP POP JUMP JUMPDEST PUSH2 0x1C54 DUP5 DUP5 DUP5 PUSH2 0x1963 JUMP JUMPDEST PUSH2 0x1C60 DUP5 DUP5 DUP5 DUP5 PUSH2 0x1E74 JUMP JUMPDEST PUSH2 0x146C JUMPI PUSH1 0x40 MLOAD PUSH3 0x461BCD PUSH1 0xE5 SHL DUP2 MSTORE PUSH1 0x4 ADD PUSH2 0x88B SWAP1 PUSH2 0x2984 JUMP JUMPDEST PUSH1 0x60 PUSH1 0xB DUP1 SLOAD PUSH2 0x8B6 SWAP1 PUSH2 0x2775 JUMP JUMPDEST PUSH1 0x60 DUP2 PUSH2 0x1CAF JUMPI POP POP PUSH1 0x40 DUP1 MLOAD DUP1 DUP3 ADD SWAP1 SWAP2 MSTORE PUSH1 0x1 DUP2 MSTORE PUSH1 0x3 PUSH1 0xFC SHL PUSH1 0x20 DUP3 ADD MSTORE SWAP1 JUMP JUMPDEST DUP2 PUSH1 0x0 JUMPDEST DUP2 ISZERO PUSH2 0x1CD9 JUMPI DUP1 PUSH2 0x1CC3 DUP2 PUSH2 0x282D JUMP JUMPDEST SWAP2 POP PUSH2 0x1CD2 SWAP1 POP PUSH1 0xA DUP4 PUSH2 0x287D JUMP JUMPDEST SWAP2 POP PUSH2 0x1CB3 JUMP JUMPDEST PUSH1 0x0 DUP2 PUSH8 0xFFFFFFFFFFFFFFFF DUP2 GT ISZERO PUSH2 0x1CF4 JUMPI PUSH2 0x1CF4 PUSH2 0x251D JUMP JUMPDEST PUSH1 0x40 MLOAD SWAP1 DUP1 DUP3 MSTORE DUP1 PUSH1 0x1F ADD PUSH1 0x1F NOT AND PUSH1 0x20 ADD DUP3 ADD PUSH1 0x40 MSTORE DUP1 ISZERO PUSH2 0x1D1E JUMPI PUSH1 0x20 DUP3 ADD DUP2 DUP1 CALLDATASIZE DUP4 CALLDATACOPY ADD SWAP1 POP JUMPDEST POP SWAP1 POP JUMPDEST DUP5 ISZERO PUSH2 0x195B JUMPI PUSH2 0x1D33 PUSH1 0x1 DUP4 PUSH2 0x296D JUMP JUMPDEST SWAP2 POP PUSH2 0x1D40 PUSH1 0xA DUP7 PUSH2 0x29D6 JUMP JUMPDEST PUSH2 0x1D4B SWAP1 PUSH1 0x30 PUSH2 0x2891 JUMP JUMPDEST PUSH1 0xF8 SHL DUP2 DUP4 DUP2 MLOAD DUP2 LT PUSH2 0x1D60 JUMPI PUSH2 0x1D60 PUSH2 0x2801 JUMP JUMPDEST PUSH1 0x20 ADD ADD SWAP1 PUSH1 0x1 PUSH1 0x1 PUSH1 0xF8 SHL SUB NOT AND SWAP1 DUP2 PUSH1 0x0 BYTE SWAP1 MSTORE8 POP PUSH2 0x1D82 PUSH1 0xA DUP7 PUSH2 0x287D JUMP JUMPDEST SWAP5 POP PUSH2 0x1D22 JUMP JUMPDEST PUSH1 0x1 PUSH1 0x1 PUSH1 0xA0 SHL SUB DUP4 AND PUSH2 0x1DE4 JUMPI PUSH2 0x1DDF DUP2 PUSH1 0x8 DUP1 SLOAD PUSH1 0x0 DUP4 DUP2 MSTORE PUSH1 0x9 PUSH1 0x20 MSTORE PUSH1 0x40 DUP2 KECCAK256 DUP3 SWAP1 SSTORE PUSH1 0x1 DUP3 ADD DUP4 SSTORE SWAP2 SWAP1 SWAP2 MSTORE PUSH32 0xF3F7A9FE364FAAB93B216DA50A3214154F22A0A2B415B23A84C8169E8B636EE3 ADD SSTORE JUMP JUMPDEST PUSH2 0x1E07 JUMP JUMPDEST DUP2 PUSH1 0x1 PUSH1 0x1 PUSH1 0xA0 SHL SUB AND DUP4 PUSH1 0x1 PUSH1 0x1 PUSH1 0xA0 SHL SUB AND EQ PUSH2 0x1E07 JUMPI PUSH2 0x1E07 DUP4 DUP3 PUSH2 0x1F72 JUMP JUMPDEST PUSH1 0x1 PUSH1 0x1 PUSH1 0xA0 SHL SUB DUP3 AND PUSH2 0x1E1E JUMPI PUSH2 0xB6D DUP2 PUSH2 0x200F JUMP JUMPDEST DUP3 PUSH1 0x1 PUSH1 0x1 PUSH1 0xA0 SHL SUB AND DUP3 PUSH1 0x1 PUSH1 0x1 PUSH1 0xA0 SHL SUB AND EQ PUSH2 0xB6D JUMPI PUSH2 0xB6D DUP3 DUP3 PUSH2 0x20BE JUMP JUMPDEST PUSH2 0x1E4B DUP4 DUP4 PUSH2 0x2102 JUMP JUMPDEST PUSH2 0x1E58 PUSH1 0x0 DUP5 DUP5 DUP5 PUSH2 0x1E74 JUMP JUMPDEST PUSH2 0xB6D JUMPI PUSH1 0x40 MLOAD PUSH3 0x461BCD PUSH1 0xE5 SHL DUP2 MSTORE PUSH1 0x4 ADD PUSH2 0x88B SWAP1 PUSH2 0x2984 JUMP JUMPDEST PUSH1 0x0 PUSH1 0x1 PUSH1 0x1 PUSH1 0xA0 SHL SUB DUP5 AND EXTCODESIZE ISZERO PUSH2 0x1F67 JUMPI PUSH1 0x40 MLOAD PUSH4 0xA85BD01 PUSH1 0xE1 SHL DUP2 MSTORE PUSH1 0x1 PUSH1 0x1 PUSH1 0xA0 SHL SUB DUP6 AND SWAP1 PUSH4 0x150B7A02 SWAP1 PUSH2 0x1EB8 SWAP1 CALLER SWAP1 DUP10 SWAP1 DUP9 SWAP1 DUP9 SWAP1 PUSH1 0x4 ADD PUSH2 0x29EA JUMP JUMPDEST PUSH1 0x20 PUSH1 0x40 MLOAD DUP1 DUP4 SUB DUP2 PUSH1 0x0 DUP8 GAS CALL SWAP3 POP POP POP DUP1 ISZERO PUSH2 0x1EF3 JUMPI POP PUSH1 0x40 DUP1 MLOAD PUSH1 0x1F RETURNDATASIZE SWAP1 DUP2 ADD PUSH1 0x1F NOT AND DUP3 ADD SWAP1 SWAP3 MSTORE PUSH2 0x1EF0 SWAP2 DUP2 ADD SWAP1 PUSH2 0x2A27 JUMP JUMPDEST PUSH1 0x1 JUMPDEST PUSH2 0x1F4D JUMPI RETURNDATASIZE DUP1 DUP1 ISZERO PUSH2 0x1F21 JUMPI PUSH1 0x40 MLOAD SWAP2 POP PUSH1 0x1F NOT PUSH1 0x3F RETURNDATASIZE ADD AND DUP3 ADD PUSH1 0x40 MSTORE RETURNDATASIZE DUP3 MSTORE RETURNDATASIZE PUSH1 0x0 PUSH1 0x20 DUP5 ADD RETURNDATACOPY PUSH2 0x1F26 JUMP JUMPDEST PUSH1 0x60 SWAP2 POP JUMPDEST POP DUP1 MLOAD PUSH2 0x1F45 JUMPI PUSH1 0x40 MLOAD PUSH3 0x461BCD PUSH1 0xE5 SHL DUP2 MSTORE PUSH1 0x4 ADD PUSH2 0x88B SWAP1 PUSH2 0x2984 JUMP JUMPDEST DUP1 MLOAD DUP2 PUSH1 0x20 ADD REVERT JUMPDEST PUSH1 0x1 PUSH1 0x1 PUSH1 0xE0 SHL SUB NOT AND PUSH4 0xA85BD01 PUSH1 0xE1 SHL EQ SWAP1 POP PUSH2 0x195B JUMP JUMPDEST POP PUSH1 0x1 SWAP5 SWAP4 POP POP POP POP JUMP JUMPDEST PUSH1 0x0 PUSH1 0x1 PUSH2 0x1F7F DUP5 PUSH2 0xFDB JUMP JUMPDEST PUSH2 0x1F89 SWAP2 SWAP1 PUSH2 0x296D JUMP JUMPDEST PUSH1 0x0 DUP4 DUP2 MSTORE PUSH1 0x7 PUSH1 0x20 MSTORE PUSH1 0x40 SWAP1 KECCAK256 SLOAD SWAP1 SWAP2 POP DUP1 DUP3 EQ PUSH2 0x1FDC JUMPI PUSH1 0x1 PUSH1 0x1 PUSH1 0xA0 SHL SUB DUP5 AND PUSH1 0x0 SWAP1 DUP2 MSTORE PUSH1 0x6 PUSH1 0x20 SWAP1 DUP2 MSTORE PUSH1 0x40 DUP1 DUP4 KECCAK256 DUP6 DUP5 MSTORE DUP3 MSTORE DUP1 DUP4 KECCAK256 SLOAD DUP5 DUP5 MSTORE DUP2 DUP5 KECCAK256 DUP2 SWAP1 SSTORE DUP4 MSTORE PUSH1 0x7 SWAP1 SWAP2 MSTORE SWAP1 KECCAK256 DUP2 SWAP1 SSTORE JUMPDEST POP PUSH1 0x0 SWAP2 DUP3 MSTORE PUSH1 0x7 PUSH1 0x20 SWAP1 DUP2 MSTORE PUSH1 0x40 DUP1 DUP5 KECCAK256 DUP5 SWAP1 SSTORE PUSH1 0x1 PUSH1 0x1 PUSH1 0xA0 SHL SUB SWAP1 SWAP5 AND DUP4 MSTORE PUSH1 0x6 DUP2 MSTORE DUP4 DUP4 KECCAK256 SWAP2 DUP4 MSTORE MSTORE SWAP1 DUP2 KECCAK256 SSTORE JUMP JUMPDEST PUSH1 0x8 SLOAD PUSH1 0x0 SWAP1 PUSH2 0x2021 SWAP1 PUSH1 0x1 SWAP1 PUSH2 0x296D JUMP JUMPDEST PUSH1 0x0 DUP4 DUP2 MSTORE PUSH1 0x9 PUSH1 0x20 MSTORE PUSH1 0x40 DUP2 KECCAK256 SLOAD PUSH1 0x8 DUP1 SLOAD SWAP4 SWAP5 POP SWAP1 SWAP3 DUP5 SWAP1 DUP2 LT PUSH2 0x2049 JUMPI PUSH2 0x2049 PUSH2 0x2801 JUMP JUMPDEST SWAP1 PUSH1 0x0 MSTORE PUSH1 0x20 PUSH1 0x0 KECCAK256 ADD SLOAD SWAP1 POP DUP1 PUSH1 0x8 DUP4 DUP2 SLOAD DUP2 LT PUSH2 0x206A JUMPI PUSH2 0x206A PUSH2 0x2801 JUMP JUMPDEST PUSH1 0x0 SWAP2 DUP3 MSTORE PUSH1 0x20 DUP1 DUP4 KECCAK256 SWAP1 SWAP2 ADD SWAP3 SWAP1 SWAP3 SSTORE DUP3 DUP2 MSTORE PUSH1 0x9 SWAP1 SWAP2 MSTORE PUSH1 0x40 DUP1 DUP3 KECCAK256 DUP5 SWAP1 SSTORE DUP6 DUP3 MSTORE DUP2 KECCAK256 SSTORE PUSH1 0x8 DUP1 SLOAD DUP1 PUSH2 0x20A2 JUMPI PUSH2 0x20A2 PUSH2 0x2A44 JUMP JUMPDEST PUSH1 0x1 SWAP1 SUB DUP2 DUP2 SWAP1 PUSH1 0x0 MSTORE PUSH1 0x20 PUSH1 0x0 KECCAK256 ADD PUSH1 0x0 SWAP1 SSTORE SWAP1 SSTORE POP POP POP POP JUMP JUMPDEST PUSH1 0x0 PUSH2 0x20C9 DUP4 PUSH2 0xFDB JUMP JUMPDEST PUSH1 0x1 PUSH1 0x1 PUSH1 0xA0 SHL SUB SWAP1 SWAP4 AND PUSH1 0x0 SWAP1 DUP2 MSTORE PUSH1 0x6 PUSH1 0x20 SWAP1 DUP2 MSTORE PUSH1 0x40 DUP1 DUP4 KECCAK256 DUP7 DUP5 MSTORE DUP3 MSTORE DUP1 DUP4 KECCAK256 DUP6 SWAP1 SSTORE SWAP4 DUP3 MSTORE PUSH1 0x7 SWAP1 MSTORE SWAP2 SWAP1 SWAP2 KECCAK256 SWAP2 SWAP1 SWAP2 SSTORE POP JUMP JUMPDEST PUSH1 0x1 PUSH1 0x1 PUSH1 0xA0 SHL SUB DUP3 AND PUSH2 0x2158 JUMPI PUSH1 0x40 MLOAD PUSH3 0x461BCD PUSH1 0xE5 SHL DUP2 MSTORE PUSH1 0x20 PUSH1 0x4 DUP3 ADD DUP2 SWAP1 MSTORE PUSH1 0x24 DUP3 ADD MSTORE PUSH32 0x4552433732313A206D696E7420746F20746865207A65726F2061646472657373 PUSH1 0x44 DUP3 ADD MSTORE PUSH1 0x64 ADD PUSH2 0x88B JUMP JUMPDEST PUSH1 0x0 DUP2 DUP2 MSTORE PUSH1 0x2 PUSH1 0x20 MSTORE PUSH1 0x40 SWAP1 KECCAK256 SLOAD PUSH1 0x1 PUSH1 0x1 PUSH1 0xA0 SHL SUB AND ISZERO PUSH2 0x21BD JUMPI PUSH1 0x40 MLOAD PUSH3 0x461BCD PUSH1 0xE5 SHL DUP2 MSTORE PUSH1 0x20 PUSH1 0x4 DUP3 ADD MSTORE PUSH1 0x1C PUSH1 0x24 DUP3 ADD MSTORE PUSH32 0x4552433732313A20746F6B656E20616C7265616479206D696E74656400000000 PUSH1 0x44 DUP3 ADD MSTORE PUSH1 0x64 ADD PUSH2 0x88B JUMP JUMPDEST PUSH2 0x21C9 PUSH1 0x0 DUP4 DUP4 PUSH2 0x1D89 JUMP JUMPDEST PUSH1 0x1 PUSH1 0x1 PUSH1 0xA0 SHL SUB DUP3 AND PUSH1 0x0 SWAP1 DUP2 MSTORE PUSH1 0x3 PUSH1 0x20 MSTORE PUSH1 0x40 DUP2 KECCAK256 DUP1 SLOAD PUSH1 0x1 SWAP3 SWAP1 PUSH2 0x21F2 SWAP1 DUP5 SWAP1 PUSH2 0x2891 JUMP JUMPDEST SWAP1 SWAP2 SSTORE POP POP PUSH1 0x0 DUP2 DUP2 MSTORE PUSH1 0x2 PUSH1 0x20 MSTORE PUSH1 0x40 DUP1 DUP3 KECCAK256 DUP1 SLOAD PUSH1 0x1 PUSH1 0x1 PUSH1 0xA0 SHL SUB NOT AND PUSH1 0x1 PUSH1 0x1 PUSH1 0xA0 SHL SUB DUP7 AND SWAP1 DUP2 OR SWAP1 SWAP2 SSTORE SWAP1 MLOAD DUP4 SWAP3 SWAP1 PUSH32 0xDDF252AD1BE2C89B69C2B068FC378DAA952BA7F163C4A11628F55A4DF523B3EF SWAP1 DUP3 SWAP1 LOG4 POP POP JUMP JUMPDEST DUP3 DUP1 SLOAD PUSH2 0x225C SWAP1 PUSH2 0x2775 JUMP JUMPDEST SWAP1 PUSH1 0x0 MSTORE PUSH1 0x20 PUSH1 0x0 KECCAK256 SWAP1 PUSH1 0x1F ADD PUSH1 0x20 SWAP1 DIV DUP2 ADD SWAP3 DUP3 PUSH2 0x227E JUMPI PUSH1 0x0 DUP6 SSTORE PUSH2 0x22C4 JUMP JUMPDEST DUP3 PUSH1 0x1F LT PUSH2 0x2297 JUMPI DUP1 MLOAD PUSH1 0xFF NOT AND DUP4 DUP1 ADD OR DUP6 SSTORE PUSH2 0x22C4 JUMP JUMPDEST DUP3 DUP1 ADD PUSH1 0x1 ADD DUP6 SSTORE DUP3 ISZERO PUSH2 0x22C4 JUMPI SWAP2 DUP3 ADD JUMPDEST DUP3 DUP2 GT ISZERO PUSH2 0x22C4 JUMPI DUP3 MLOAD DUP3 SSTORE SWAP2 PUSH1 0x20 ADD SWAP2 SWAP1 PUSH1 0x1 ADD SWAP1 PUSH2 0x22A9 JUMP JUMPDEST POP PUSH2 0x22D0 SWAP3 SWAP2 POP PUSH2 0x2345 JUMP JUMPDEST POP SWAP1 JUMP JUMPDEST POP DUP1 SLOAD PUSH1 0x0 DUP3 SSTORE SWAP1 PUSH1 0x0 MSTORE PUSH1 0x20 PUSH1 0x0 KECCAK256 SWAP1 DUP2 ADD SWAP1 PUSH2 0x17AB SWAP2 SWAP1 PUSH2 0x2345 JUMP JUMPDEST DUP3 DUP1 SLOAD DUP3 DUP3 SSTORE SWAP1 PUSH1 0x0 MSTORE PUSH1 0x20 PUSH1 0x0 KECCAK256 SWAP1 DUP2 ADD SWAP3 DUP3 ISZERO PUSH2 0x22C4 JUMPI SWAP2 PUSH1 0x20 MUL DUP3 ADD JUMPDEST DUP3 DUP2 GT ISZERO PUSH2 0x22C4 JUMPI DUP2 SLOAD PUSH1 0x1 PUSH1 0x1 PUSH1 0xA0 SHL SUB NOT AND PUSH1 0x1 PUSH1 0x1 PUSH1 0xA0 SHL SUB DUP5 CALLDATALOAD AND OR DUP3 SSTORE PUSH1 0x20 SWAP1 SWAP3 ADD SWAP2 PUSH1 0x1 SWAP1 SWAP2 ADD SWAP1 PUSH2 0x2312 JUMP JUMPDEST JUMPDEST DUP1 DUP3 GT ISZERO PUSH2 0x22D0 JUMPI PUSH1 0x0 DUP2 SSTORE PUSH1 0x1 ADD PUSH2 0x2346 JUMP JUMPDEST PUSH1 0x1 PUSH1 0x1 PUSH1 0xE0 SHL SUB NOT DUP2 AND DUP2 EQ PUSH2 0x17AB JUMPI PUSH1 0x0 DUP1 REVERT JUMPDEST PUSH1 0x0 PUSH1 0x20 DUP3 DUP5 SUB SLT ISZERO PUSH2 0x2382 JUMPI PUSH1 0x0 DUP1 REVERT JUMPDEST DUP2 CALLDATALOAD PUSH2 0x1621 DUP2 PUSH2 0x235A JUMP JUMPDEST DUP1 CALLDATALOAD DUP1 ISZERO ISZERO DUP2 EQ PUSH2 0x239D JUMPI PUSH1 0x0 DUP1 REVERT JUMPDEST SWAP2 SWAP1 POP JUMP JUMPDEST PUSH1 0x0 PUSH1 0x20 DUP3 DUP5 SUB SLT ISZERO PUSH2 0x23B4 JUMPI PUSH1 0x0 DUP1 REVERT JUMPDEST PUSH2 0x1621 DUP3 PUSH2 0x238D JUMP JUMPDEST PUSH1 0x0 JUMPDEST DUP4 DUP2 LT ISZERO PUSH2 0x23D8 JUMPI DUP2 DUP2 ADD MLOAD DUP4 DUP3 ADD MSTORE PUSH1 0x20 ADD PUSH2 0x23C0 JUMP JUMPDEST DUP4 DUP2 GT ISZERO PUSH2 0x146C JUMPI POP POP PUSH1 0x0 SWAP2 ADD MSTORE JUMP JUMPDEST PUSH1 0x0 DUP2 MLOAD DUP1 DUP5 MSTORE PUSH2 0x2401 DUP2 PUSH1 0x20 DUP7 ADD PUSH1 0x20 DUP7 ADD PUSH2 0x23BD JUMP JUMPDEST PUSH1 0x1F ADD PUSH1 0x1F NOT AND SWAP3 SWAP1 SWAP3 ADD PUSH1 0x20 ADD SWAP3 SWAP2 POP POP JUMP JUMPDEST PUSH1 0x20 DUP2 MSTORE PUSH1 0x0 PUSH2 0x1621 PUSH1 0x20 DUP4 ADD DUP5 PUSH2 0x23E9 JUMP JUMPDEST PUSH1 0x0 PUSH1 0x20 DUP3 DUP5 SUB SLT ISZERO PUSH2 0x243A JUMPI PUSH1 0x0 DUP1 REVERT JUMPDEST POP CALLDATALOAD SWAP2 SWAP1 POP JUMP JUMPDEST DUP1 CALLDATALOAD PUSH1 0x1 PUSH1 0x1 PUSH1 0xA0 SHL SUB DUP2 AND DUP2 EQ PUSH2 0x239D JUMPI PUSH1 0x0 DUP1 REVERT JUMPDEST PUSH1 0x0 DUP1 PUSH1 0x40 DUP4 DUP6 SUB SLT ISZERO PUSH2 0x246B JUMPI PUSH1 0x0 DUP1 REVERT JUMPDEST PUSH2 0x2474 DUP4 PUSH2 0x2441 JUMP JUMPDEST SWAP5 PUSH1 0x20 SWAP4 SWAP1 SWAP4 ADD CALLDATALOAD SWAP4 POP POP POP JUMP JUMPDEST PUSH1 0x0 PUSH1 0x20 DUP3 DUP5 SUB SLT ISZERO PUSH2 0x2494 JUMPI PUSH1 0x0 DUP1 REVERT JUMPDEST PUSH2 0x1621 DUP3 PUSH2 0x2441 JUMP JUMPDEST PUSH1 0x0 DUP1 PUSH1 0x0 PUSH1 0x60 DUP5 DUP7 SUB SLT ISZERO PUSH2 0x24B2 JUMPI PUSH1 0x0 DUP1 REVERT JUMPDEST PUSH2 0x24BB DUP5 PUSH2 0x2441 JUMP JUMPDEST SWAP3 POP PUSH2 0x24C9 PUSH1 0x20 DUP6 ADD PUSH2 0x2441 JUMP JUMPDEST SWAP2 POP PUSH1 0x40 DUP5 ADD CALLDATALOAD SWAP1 POP SWAP3 POP SWAP3 POP SWAP3 JUMP JUMPDEST PUSH1 0x20 DUP1 DUP3 MSTORE DUP3 MLOAD DUP3 DUP3 ADD DUP2 SWAP1 MSTORE PUSH1 0x0 SWAP2 SWAP1 DUP5 DUP3 ADD SWAP1 PUSH1 0x40 DUP6 ADD SWAP1 DUP5 JUMPDEST DUP2 DUP2 LT ISZERO PUSH2 0x2511 JUMPI DUP4 MLOAD DUP4 MSTORE SWAP3 DUP5 ADD SWAP3 SWAP2 DUP5 ADD SWAP2 PUSH1 0x1 ADD PUSH2 0x24F5 JUMP JUMPDEST POP SWAP1 SWAP7 SWAP6 POP POP POP POP POP POP JUMP JUMPDEST PUSH4 0x4E487B71 PUSH1 0xE0 SHL PUSH1 0x0 MSTORE PUSH1 0x41 PUSH1 0x4 MSTORE PUSH1 0x24 PUSH1 0x0 REVERT JUMPDEST PUSH1 0x0 PUSH8 0xFFFFFFFFFFFFFFFF DUP1 DUP5 GT ISZERO PUSH2 0x254E JUMPI PUSH2 0x254E PUSH2 0x251D JUMP JUMPDEST PUSH1 0x40 MLOAD PUSH1 0x1F DUP6 ADD PUSH1 0x1F NOT SWAP1 DUP2 AND PUSH1 0x3F ADD AND DUP2 ADD SWAP1 DUP3 DUP3 GT DUP2 DUP4 LT OR ISZERO PUSH2 0x2576 JUMPI PUSH2 0x2576 PUSH2 0x251D JUMP JUMPDEST DUP2 PUSH1 0x40 MSTORE DUP1 SWAP4 POP DUP6 DUP2 MSTORE DUP7 DUP7 DUP7 ADD GT ISZERO PUSH2 0x258F JUMPI PUSH1 0x0 DUP1 REVERT JUMPDEST DUP6 DUP6 PUSH1 0x20 DUP4 ADD CALLDATACOPY PUSH1 0x0 PUSH1 0x20 DUP8 DUP4 ADD ADD MSTORE POP POP POP SWAP4 SWAP3 POP POP POP JUMP JUMPDEST PUSH1 0x0 PUSH1 0x20 DUP3 DUP5 SUB SLT ISZERO PUSH2 0x25BB JUMPI PUSH1 0x0 DUP1 REVERT JUMPDEST DUP2 CALLDATALOAD PUSH8 0xFFFFFFFFFFFFFFFF DUP2 GT ISZERO PUSH2 0x25D2 JUMPI PUSH1 0x0 DUP1 REVERT JUMPDEST DUP3 ADD PUSH1 0x1F DUP2 ADD DUP5 SGT PUSH2 0x25E3 JUMPI PUSH1 0x0 DUP1 REVERT JUMPDEST PUSH2 0x195B DUP5 DUP3 CALLDATALOAD PUSH1 0x20 DUP5 ADD PUSH2 0x2533 JUMP JUMPDEST PUSH1 0x0 DUP1 PUSH1 0x40 DUP4 DUP6 SUB SLT ISZERO PUSH2 0x2605 JUMPI PUSH1 0x0 DUP1 REVERT JUMPDEST PUSH2 0x260E DUP4 PUSH2 0x2441 JUMP JUMPDEST SWAP2 POP PUSH2 0x261C PUSH1 0x20 DUP5 ADD PUSH2 0x238D JUMP JUMPDEST SWAP1 POP SWAP3 POP SWAP3 SWAP1 POP JUMP JUMPDEST PUSH1 0x0 DUP1 PUSH1 0x0 DUP1 PUSH1 0x80 DUP6 DUP8 SUB SLT ISZERO PUSH2 0x263B JUMPI PUSH1 0x0 DUP1 REVERT JUMPDEST PUSH2 0x2644 DUP6 PUSH2 0x2441 JUMP JUMPDEST SWAP4 POP PUSH2 0x2652 PUSH1 0x20 DUP7 ADD PUSH2 0x2441 JUMP JUMPDEST SWAP3 POP PUSH1 0x40 DUP6 ADD CALLDATALOAD SWAP2 POP PUSH1 0x60 DUP6 ADD CALLDATALOAD PUSH8 0xFFFFFFFFFFFFFFFF DUP2 GT ISZERO PUSH2 0x2675 JUMPI PUSH1 0x0 DUP1 REVERT JUMPDEST DUP6 ADD PUSH1 0x1F DUP2 ADD DUP8 SGT PUSH2 0x2686 JUMPI PUSH1 0x0 DUP1 REVERT JUMPDEST PUSH2 0x2695 DUP8 DUP3 CALLDATALOAD PUSH1 0x20 DUP5 ADD PUSH2 0x2533 JUMP JUMPDEST SWAP2 POP POP SWAP3 SWAP6 SWAP2 SWAP5 POP SWAP3 POP JUMP JUMPDEST PUSH1 0x0 DUP1 PUSH1 0x40 DUP4 DUP6 SUB SLT ISZERO PUSH2 0x26B4 JUMPI PUSH1 0x0 DUP1 REVERT JUMPDEST PUSH2 0x26BD DUP4 PUSH2 0x2441 JUMP JUMPDEST SWAP2 POP PUSH2 0x261C PUSH1 0x20 DUP5 ADD PUSH2 0x2441 JUMP JUMPDEST PUSH1 0x0 DUP1 PUSH1 0x20 DUP4 DUP6 SUB SLT ISZERO PUSH2 0x26DE JUMPI PUSH1 0x0 DUP1 REVERT JUMPDEST DUP3 CALLDATALOAD PUSH8 0xFFFFFFFFFFFFFFFF DUP1 DUP3 GT ISZERO PUSH2 0x26F6 JUMPI PUSH1 0x0 DUP1 REVERT JUMPDEST DUP2 DUP6 ADD SWAP2 POP DUP6 PUSH1 0x1F DUP4 ADD SLT PUSH2 0x270A JUMPI PUSH1 0x0 DUP1 REVERT JUMPDEST DUP2 CALLDATALOAD DUP2 DUP2 GT ISZERO PUSH2 0x2719 JUMPI PUSH1 0x0 DUP1 REVERT JUMPDEST DUP7 PUSH1 0x20 DUP3 PUSH1 0x5 SHL DUP6 ADD ADD GT ISZERO PUSH2 0x272E JUMPI PUSH1 0x0 DUP1 REVERT JUMPDEST PUSH1 0x20 SWAP3 SWAP1 SWAP3 ADD SWAP7 SWAP2 SWAP6 POP SWAP1 SWAP4 POP POP POP POP JUMP JUMPDEST PUSH1 0x20 DUP1 DUP3 MSTORE DUP2 DUP2 ADD MSTORE PUSH32 0x4F776E61626C653A2063616C6C6572206973206E6F7420746865206F776E6572 PUSH1 0x40 DUP3 ADD MSTORE PUSH1 0x60 ADD SWAP1 JUMP JUMPDEST PUSH1 0x1 DUP2 DUP2 SHR SWAP1 DUP3 AND DUP1 PUSH2 0x2789 JUMPI PUSH1 0x7F DUP3 AND SWAP2 POP JUMPDEST PUSH1 0x20 DUP3 LT DUP2 EQ ISZERO PUSH2 0x27AA JUMPI PUSH4 0x4E487B71 PUSH1 0xE0 SHL PUSH1 0x0 MSTORE PUSH1 0x22 PUSH1 0x4 MSTORE PUSH1 0x24 PUSH1 0x0 REVERT JUMPDEST POP SWAP2 SWAP1 POP JUMP JUMPDEST PUSH1 0x20 DUP1 DUP3 MSTORE PUSH1 0x31 SWAP1 DUP3 ADD MSTORE PUSH32 0x4552433732313A207472616E736665722063616C6C6572206973206E6F74206F PUSH1 0x40 DUP3 ADD MSTORE PUSH17 0x1DDB995C881B9BDC88185C1C1C9BDD9959 PUSH1 0x7A SHL PUSH1 0x60 DUP3 ADD MSTORE PUSH1 0x80 ADD SWAP1 JUMP JUMPDEST PUSH4 0x4E487B71 PUSH1 0xE0 SHL PUSH1 0x0 MSTORE PUSH1 0x32 PUSH1 0x4 MSTORE PUSH1 0x24 PUSH1 0x0 REVERT JUMPDEST PUSH4 0x4E487B71 PUSH1 0xE0 SHL PUSH1 0x0 MSTORE PUSH1 0x11 PUSH1 0x4 MSTORE PUSH1 0x24 PUSH1 0x0 REVERT JUMPDEST PUSH1 0x0 PUSH1 0x0 NOT DUP3 EQ ISZERO PUSH2 0x2841 JUMPI PUSH2 0x2841 PUSH2 0x2817 JUMP JUMPDEST POP PUSH1 0x1 ADD SWAP1 JUMP JUMPDEST PUSH1 0x0 DUP2 PUSH1 0x0 NOT DIV DUP4 GT DUP3 ISZERO ISZERO AND ISZERO PUSH2 0x2862 JUMPI PUSH2 0x2862 PUSH2 0x2817 JUMP JUMPDEST POP MUL SWAP1 JUMP JUMPDEST PUSH4 0x4E487B71 PUSH1 0xE0 SHL PUSH1 0x0 MSTORE PUSH1 0x12 PUSH1 0x4 MSTORE PUSH1 0x24 PUSH1 0x0 REVERT JUMPDEST PUSH1 0x0 DUP3 PUSH2 0x288C JUMPI PUSH2 0x288C PUSH2 0x2867 JUMP JUMPDEST POP DIV SWAP1 JUMP JUMPDEST PUSH1 0x0 DUP3 NOT DUP3 GT ISZERO PUSH2 0x28A4 JUMPI PUSH2 0x28A4 PUSH2 0x2817 JUMP JUMPDEST POP ADD SWAP1 JUMP JUMPDEST PUSH1 0x0 DUP5 MLOAD PUSH1 0x20 PUSH2 0x28BC DUP3 DUP6 DUP4 DUP11 ADD PUSH2 0x23BD JUMP JUMPDEST DUP6 MLOAD SWAP2 DUP5 ADD SWAP2 PUSH2 0x28CF DUP2 DUP5 DUP5 DUP11 ADD PUSH2 0x23BD JUMP JUMPDEST DUP6 SLOAD SWAP3 ADD SWAP2 PUSH1 0x0 SWAP1 PUSH1 0x1 DUP2 DUP2 SHR SWAP1 DUP1 DUP4 AND DUP1 PUSH2 0x28EC JUMPI PUSH1 0x7F DUP4 AND SWAP3 POP JUMPDEST DUP6 DUP4 LT DUP2 EQ ISZERO PUSH2 0x290A JUMPI PUSH4 0x4E487B71 PUSH1 0xE0 SHL DUP6 MSTORE PUSH1 0x22 PUSH1 0x4 MSTORE PUSH1 0x24 DUP6 REVERT JUMPDEST DUP1 DUP1 ISZERO PUSH2 0x291E JUMPI PUSH1 0x1 DUP2 EQ PUSH2 0x292F JUMPI PUSH2 0x295C JUMP JUMPDEST PUSH1 0xFF NOT DUP6 AND DUP9 MSTORE DUP4 DUP9 ADD SWAP6 POP PUSH2 0x295C JUMP JUMPDEST PUSH1 0x0 DUP12 DUP2 MSTORE PUSH1 0x20 SWAP1 KECCAK256 PUSH1 0x0 JUMPDEST DUP6 DUP2 LT ISZERO PUSH2 0x2954 JUMPI DUP2 SLOAD DUP11 DUP3 ADD MSTORE SWAP1 DUP5 ADD SWAP1 DUP9 ADD PUSH2 0x293B JUMP JUMPDEST POP POP DUP4 DUP9 ADD SWAP6 POP JUMPDEST POP SWAP4 SWAP12 SWAP11 POP POP POP POP POP POP POP POP POP POP POP JUMP JUMPDEST PUSH1 0x0 DUP3 DUP3 LT ISZERO PUSH2 0x297F JUMPI PUSH2 0x297F PUSH2 0x2817 JUMP JUMPDEST POP SUB SWAP1 JUMP JUMPDEST PUSH1 0x20 DUP1 DUP3 MSTORE PUSH1 0x32 SWAP1 DUP3 ADD MSTORE PUSH32 0x4552433732313A207472616E7366657220746F206E6F6E204552433732315265 PUSH1 0x40 DUP3 ADD MSTORE PUSH18 0x31B2B4BB32B91034B6B83632B6B2B73A32B9 PUSH1 0x71 SHL PUSH1 0x60 DUP3 ADD MSTORE PUSH1 0x80 ADD SWAP1 JUMP JUMPDEST PUSH1 0x0 DUP3 PUSH2 0x29E5 JUMPI PUSH2 0x29E5 PUSH2 0x2867 JUMP JUMPDEST POP MOD SWAP1 JUMP JUMPDEST PUSH1 0x1 PUSH1 0x1 PUSH1 0xA0 SHL SUB DUP6 DUP2 AND DUP3 MSTORE DUP5 AND PUSH1 0x20 DUP3 ADD MSTORE PUSH1 0x40 DUP2 ADD DUP4 SWAP1 MSTORE PUSH1 0x80 PUSH1 0x60 DUP3 ADD DUP2 SWAP1 MSTORE PUSH1 0x0 SWAP1 PUSH2 0x2A1D SWAP1 DUP4 ADD DUP5 PUSH2 0x23E9 JUMP JUMPDEST SWAP7 SWAP6 POP POP POP POP POP POP JUMP JUMPDEST PUSH1 0x0 PUSH1 0x20 DUP3 DUP5 SUB SLT ISZERO PUSH2 0x2A39 JUMPI PUSH1 0x0 DUP1 REVERT JUMPDEST DUP2 MLOAD PUSH2 0x1621 DUP2 PUSH2 0x235A JUMP JUMPDEST PUSH4 0x4E487B71 PUSH1 0xE0 SHL PUSH1 0x0 MSTORE PUSH1 0x31 PUSH1 0x4 MSTORE PUSH1 0x24 PUSH1 0x0 REVERT INVALID LOG2 PUSH5 0x6970667358 0x22 SLT KECCAK256 0xDD LOG1 0xF6 0x26 0x4B EXP 0xA9 0x4B 0xB3 0xD9 DELEGATECALL SWAP7 PUSH30 0x10259AE815CD4F28894BC696189E16FC01EA6564736F6C634300080A0033 ","sha1":"5d547b794a8fe56202e39d66303714707bcc6dd1","source":"// SPDX-License-Identifier: GPL-3.0\npragma solidity >=0.7.0 <0.9.0;\n\nimport \"@openzeppelin/contracts/token/ERC721/extensions/ERC721Enumerable.sol\";\nimport \"@openzeppelin/contracts/access/Ownable.sol\";\n\ncontract Explorer is ERC721Enumerable, Ownable {\n    using Strings for uint256;\n\n    string public baseURI;\n    string public baseExtension = \".json\";\n    string public notRevealedUri;\n    uint256 public cost = 0.15 ether;\n    uint256 public maxSupply = 10000;\n    uint256 public maxMintAmount = 2;\n    uint256 public nftPerAddressLimit = 3;\n    bool public paused = false;\n    bool public revealed = false;\n    bool public onlyWhitelisted = false;\n    address[] public whitelistedAddresses;\n    mapping(address => uint256) public addressMintedBalance;\n\n    constructor(\n        string memory _name,\n        string memory _symbol,\n        string memory _initBaseURI,\n        string memory _initNotRevealedUri\n    ) ERC721(_name, _symbol) {\n        setBaseURI(_initBaseURI);\n        setNotRevealedURI(_initNotRevealedUri);\n    }\n\n    // internal\n    function _baseURI() internal view virtual override returns (string memory) {\n        return baseURI;\n    }\n\n    // public\n    function mint(uint256 _mintAmount) public payable {\n        require(!paused, \"the contract is paused\");\n        uint256 supply = totalSupply();\n        require(_mintAmount > 0, \"need to mint at least 1 NFT\");\n        require(\n            _mintAmount <= maxMintAmount,\n            \"max mint amount per session exceeded\"\n        );\n        require(supply + _mintAmount <= maxSupply, \"max NFT limit exceeded\");\n\n        if (msg.sender != owner()) {\n            if (onlyWhitelisted == true) {\n                require(isWhitelisted(msg.sender), \"user is not whitelisted\");\n                uint256 ownerMintedCount = addressMintedBalance[msg.sender];\n                require(\n                    ownerMintedCount + _mintAmount <= nftPerAddressLimit,\n                    \"max NFT per address exceeded\"\n                );\n            }\n            require(msg.value >= cost * _mintAmount, \"insufficient funds\");\n        }\n\n        for (uint256 i = 1; i <= _mintAmount; i++) {\n            addressMintedBalance[msg.sender]++;\n            _safeMint(msg.sender, supply + i);\n        }\n    }\n\n    function isWhitelisted(address _user) public view returns (bool) {\n        for (uint256 i = 0; i < whitelistedAddresses.length; i++) {\n            if (whitelistedAddresses[i] == _user) {\n                return true;\n            }\n        }\n        return false;\n    }\n\n    function walletOfOwner(address _owner)\n        public\n        view\n        returns (uint256[] memory)\n    {\n        uint256 ownerTokenCount = balanceOf(_owner);\n        uint256[] memory tokenIds = new uint256[](ownerTokenCount);\n        for (uint256 i; i < ownerTokenCount; i++) {\n            tokenIds[i] = tokenOfOwnerByIndex(_owner, i);\n        }\n        return tokenIds;\n    }\n\n    function tokenURI(uint256 tokenId)\n        public\n        view\n        virtual\n        override\n        returns (string memory)\n    {\n        require(\n            _exists(tokenId),\n            \"ERC721Metadata: URI query for nonexistent token\"\n        );\n\n        if (revealed == false) {\n            return notRevealedUri;\n        }\n\n        string memory currentBaseURI = _baseURI();\n        return\n            bytes(currentBaseURI).length > 0\n                ? string(\n                    abi.encodePacked(\n                        currentBaseURI,\n                        tokenId.toString(),\n                        baseExtension\n                    )\n                )\n                : \"\";\n    }\n\n    //only owner\n    function reveal() public onlyOwner {\n        revealed = true;\n    }\n\n    function hide() public onlyOwner {\n        revealed = false;\n    }\n\n    function setNftPerAddressLimit(uint256 _limit) public onlyOwner {\n        nftPerAddressLimit = _limit;\n    }\n\n    function setCost(uint256 _newCost) public onlyOwner {\n        cost = _newCost;\n    }\n\n    function getCost() public view returns (uint256) {\n        return cost;\n    }\n\n    function setmaxMintAmount(uint256 _newmaxMintAmount) public onlyOwner {\n        maxMintAmount = _newmaxMintAmount;\n    }\n\n    function setBaseURI(string memory _newBaseURI) public onlyOwner {\n        baseURI = _newBaseURI;\n    }\n\n    function setBaseExtension(string memory _newBaseExtension)\n        public\n        onlyOwner\n    {\n        baseExtension = _newBaseExtension;\n    }\n\n    function setNotRevealedURI(string memory _notRevealedURI) public onlyOwner {\n        notRevealedUri = _notRevealedURI;\n    }\n\n    function pause(bool _state) public onlyOwner {\n        paused = _state;\n    }\n\n    function setOnlyWhitelisted(bool _state) public onlyOwner {\n        onlyWhitelisted = _state;\n    }\n\n    function whitelistUsers(address[] calldata _users) public onlyOwner {\n        delete whitelistedAddresses;\n        whitelistedAddresses = _users;\n    }\n\n    function withdraw() public payable onlyOwner {\n        // // This will pay HashLips 5% of the initial sale.\n        // // You can remove this if you want, or keep it in to support HashLips and his channel.\n        // // =============================================================================\n        // (bool hs, ) = payable(0x943590A42C27D08e3744202c4Ae5eD55c2dE240D).call{\n        //     value: (address(this).balance * 5) / 100\n        // }(\"\");\n        // require(hs);\n        // =============================================================================\n\n        // This will payout the owner 95% of the contract balance.\n        // Do not remove this otherwise you will not be able to withdraw the funds.\n        // =============================================================================\n        uint256 n = 1;\n        uint256 per = 1;\n        (bool os, ) = payable(owner()).call{\n            value: (address(this).balance * n) / per\n        }(\"\");\n        require(os);\n        // =============================================================================\n    }\n}\n","sourcePath":"contracts/ExplorerContractV4.sol","type":"contract","deployment":{"address":"0xe28110617AF8c3EC27300674f24D2432025593EF","chainid":"4","blockHeight":10117165}}